{
  "_format": "hh-sol-artifact-1",
  "contractName": "AttestorRegistry",
  "sourceName": "contracts/AttestorRegistry.sol",
  "abi": [
    {
      "inputs": [],
      "stateMutability": "nonpayable",
      "type": "constructor"
    },
    {
      "inputs": [
        {
          "internalType": "address",
          "name": "owner",
          "type": "address"
        }
      ],
      "name": "OwnableInvalidOwner",
      "type": "error"
    },
    {
      "inputs": [
        {
          "internalType": "address",
          "name": "account",
          "type": "address"
        }
      ],
      "name": "OwnableUnauthorizedAccount",
      "type": "error"
    },
    {
      "anonymous": false,
      "inputs": [
        {
          "indexed": true,
          "internalType": "address",
          "name": "issuer",
          "type": "address"
        },
        {
          "indexed": false,
          "internalType": "uint256",
          "name": "amount",
          "type": "uint256"
        }
      ],
      "name": "AttestationFeePaid",
      "type": "event"
    },
    {
      "anonymous": false,
      "inputs": [
        {
          "indexed": true,
          "internalType": "address",
          "name": "attestor",
          "type": "address"
        }
      ],
      "name": "AttestorRegistered",
      "type": "event"
    },
    {
      "anonymous": false,
      "inputs": [
        {
          "indexed": true,
          "internalType": "address",
          "name": "attestor",
          "type": "address"
        },
        {
          "indexed": false,
          "internalType": "uint256",
          "name": "amount",
          "type": "uint256"
        },
        {
          "indexed": true,
          "internalType": "address",
          "name": "slasher",
          "type": "address"
        }
      ],
      "name": "AttestorSlashed",
      "type": "event"
    },
    {
      "anonymous": false,
      "inputs": [
        {
          "indexed": true,
          "internalType": "uint256",
          "name": "claimId",
          "type": "uint256"
        },
        {
          "indexed": true,
          "internalType": "address",
          "name": "attestor",
          "type": "address"
        },
        {
          "indexed": false,
          "internalType": "uint256",
          "name": "stakeAmount",
          "type": "uint256"
        }
      ],
      "name": "ClaimAttested",
      "type": "event"
    },
    {
      "anonymous": false,
      "inputs": [
        {
          "indexed": true,
          "internalType": "uint256",
          "name": "claimId",
          "type": "uint256"
        },
        {
          "indexed": true,
          "internalType": "address",
          "name": "flagger",
          "type": "address"
        },
        {
          "indexed": false,
          "internalType": "string",
          "name": "reason",
          "type": "string"
        }
      ],
      "name": "ClaimFlagged",
      "type": "event"
    },
    {
      "anonymous": false,
      "inputs": [
        {
          "indexed": true,
          "internalType": "address",
          "name": "previousOwner",
          "type": "address"
        },
        {
          "indexed": true,
          "internalType": "address",
          "name": "newOwner",
          "type": "address"
        }
      ],
      "name": "OwnershipTransferred",
      "type": "event"
    },
    {
      "anonymous": false,
      "inputs": [
        {
          "indexed": true,
          "internalType": "address",
          "name": "attestor",
          "type": "address"
        },
        {
          "indexed": false,
          "internalType": "uint256",
          "name": "amount",
          "type": "uint256"
        }
      ],
      "name": "RewardAccrued",
      "type": "event"
    },
    {
      "anonymous": false,
      "inputs": [
        {
          "indexed": true,
          "internalType": "address",
          "name": "attestor",
          "type": "address"
        },
        {
          "indexed": false,
          "internalType": "uint256",
          "name": "amount",
          "type": "uint256"
        }
      ],
      "name": "RewardsClaimed",
      "type": "event"
    },
    {
      "anonymous": false,
      "inputs": [
        {
          "indexed": true,
          "internalType": "address",
          "name": "attestor",
          "type": "address"
        },
        {
          "indexed": false,
          "internalType": "uint256",
          "name": "amount",
          "type": "uint256"
        }
      ],
      "name": "StakeAdded",
      "type": "event"
    },
    {
      "anonymous": false,
      "inputs": [
        {
          "indexed": true,
          "internalType": "uint256",
          "name": "claimId",
          "type": "uint256"
        },
        {
          "indexed": false,
          "internalType": "bool",
          "name": "success",
          "type": "bool"
        }
      ],
      "name": "VerificationRecorded",
      "type": "event"
    },
    {
      "inputs": [],
      "name": "ATTESTATION_FEE",
      "outputs": [
        {
          "internalType": "uint256",
          "name": "",
          "type": "uint256"
        }
      ],
      "stateMutability": "view",
      "type": "function"
    },
    {
      "inputs": [],
      "name": "MIN_REQUIRED_ATTESTORS",
      "outputs": [
        {
          "internalType": "uint256",
          "name": "",
          "type": "uint256"
        }
      ],
      "stateMutability": "view",
      "type": "function"
    },
    {
      "inputs": [],
      "name": "REWARD_PER_ATTESTATION",
      "outputs": [
        {
          "internalType": "uint256",
          "name": "",
          "type": "uint256"
        }
      ],
      "stateMutability": "view",
      "type": "function"
    },
    {
      "inputs": [
        {
          "internalType": "uint256",
          "name": "claimId",
          "type": "uint256"
        }
      ],
      "name": "attestToClaim",
      "outputs": [],
      "stateMutability": "nonpayable",
      "type": "function"
    },
    {
      "inputs": [
        {
          "internalType": "uint256",
          "name": "",
          "type": "uint256"
        }
      ],
      "name": "attestorCountPerClaim",
      "outputs": [
        {
          "internalType": "uint256",
          "name": "",
          "type": "uint256"
        }
      ],
      "stateMutability": "view",
      "type": "function"
    },
    {
      "inputs": [
        {
          "internalType": "address",
          "name": "",
          "type": "address"
        }
      ],
      "name": "attestors",
      "outputs": [
        {
          "internalType": "bool",
          "name": "isRegistered",
          "type": "bool"
        },
        {
          "internalType": "uint256",
          "name": "stake",
          "type": "uint256"
        }
      ],
      "stateMutability": "view",
      "type": "function"
    },
    {
      "inputs": [
        {
          "internalType": "uint256",
          "name": "",
          "type": "uint256"
        },
        {
          "internalType": "uint256",
          "name": "",
          "type": "uint256"
        }
      ],
      "name": "attestorsList",
      "outputs": [
        {
          "internalType": "address",
          "name": "",
          "type": "address"
        }
      ],
      "stateMutability": "view",
      "type": "function"
    },
    {
      "inputs": [],
      "name": "claimRewards",
      "outputs": [],
      "stateMutability": "nonpayable",
      "type": "function"
    },
    {
      "inputs": [
        {
          "internalType": "uint256",
          "name": "claimId",
          "type": "uint256"
        }
      ],
      "name": "finalizeAndReward",
      "outputs": [],
      "stateMutability": "nonpayable",
      "type": "function"
    },
    {
      "inputs": [
        {
          "internalType": "uint256",
          "name": "claimId",
          "type": "uint256"
        },
        {
          "internalType": "string",
          "name": "reason",
          "type": "string"
        }
      ],
      "name": "flagClaim",
      "outputs": [],
      "stateMutability": "nonpayable",
      "type": "function"
    },
    {
      "inputs": [
        {
          "internalType": "uint256",
          "name": "",
          "type": "uint256"
        }
      ],
      "name": "flagReasons",
      "outputs": [
        {
          "internalType": "string",
          "name": "",
          "type": "string"
        }
      ],
      "stateMutability": "view",
      "type": "function"
    },
    {
      "inputs": [],
      "name": "getAttestationFee",
      "outputs": [
        {
          "internalType": "uint256",
          "name": "",
          "type": "uint256"
        }
      ],
      "stateMutability": "pure",
      "type": "function"
    },
    {
      "inputs": [
        {
          "internalType": "address",
          "name": "attestor",
          "type": "address"
        }
      ],
      "name": "getAttestorStats",
      "outputs": [
        {
          "internalType": "uint256",
          "name": "totalAttestations",
          "type": "uint256"
        },
        {
          "internalType": "uint256",
          "name": "successful",
          "type": "uint256"
        },
        {
          "internalType": "uint256",
          "name": "rewards",
          "type": "uint256"
        },
        {
          "internalType": "uint256",
          "name": "totalClaimed",
          "type": "uint256"
        },
        {
          "internalType": "uint256",
          "name": "trustScore",
          "type": "uint256"
        }
      ],
      "stateMutability": "view",
      "type": "function"
    },
    {
      "inputs": [
        {
          "internalType": "uint256",
          "name": "claimId",
          "type": "uint256"
        }
      ],
      "name": "getAttestors",
      "outputs": [
        {
          "internalType": "address[]",
          "name": "",
          "type": "address[]"
        }
      ],
      "stateMutability": "view",
      "type": "function"
    },
    {
      "inputs": [],
      "name": "getRewardPoolBalance",
      "outputs": [
        {
          "internalType": "uint256",
          "name": "",
          "type": "uint256"
        }
      ],
      "stateMutability": "view",
      "type": "function"
    },
    {
      "inputs": [
        {
          "internalType": "address",
          "name": "attestor",
          "type": "address"
        }
      ],
      "name": "getTrustScore",
      "outputs": [
        {
          "internalType": "uint256",
          "name": "",
          "type": "uint256"
        }
      ],
      "stateMutability": "view",
      "type": "function"
    },
    {
      "inputs": [
        {
          "internalType": "uint256",
          "name": "",
          "type": "uint256"
        },
        {
          "internalType": "address",
          "name": "",
          "type": "address"
        }
      ],
      "name": "hasAttested",
      "outputs": [
        {
          "internalType": "bool",
          "name": "",
          "type": "bool"
        }
      ],
      "stateMutability": "view",
      "type": "function"
    },
    {
      "inputs": [
        {
          "internalType": "uint256",
          "name": "",
          "type": "uint256"
        }
      ],
      "name": "isFlagged",
      "outputs": [
        {
          "internalType": "bool",
          "name": "",
          "type": "bool"
        }
      ],
      "stateMutability": "view",
      "type": "function"
    },
    {
      "inputs": [],
      "name": "owner",
      "outputs": [
        {
          "internalType": "address",
          "name": "",
          "type": "address"
        }
      ],
      "stateMutability": "view",
      "type": "function"
    },
    {
      "inputs": [],
      "name": "payAttestationFee",
      "outputs": [],
      "stateMutability": "payable",
      "type": "function"
    },
    {
      "inputs": [
        {
          "internalType": "uint256",
          "name": "claimId",
          "type": "uint256"
        },
        {
          "internalType": "bool",
          "name": "success",
          "type": "bool"
        }
      ],
      "name": "recordVerification",
      "outputs": [],
      "stateMutability": "nonpayable",
      "type": "function"
    },
    {
      "inputs": [],
      "name": "register",
      "outputs": [],
      "stateMutability": "payable",
      "type": "function"
    },
    {
      "inputs": [],
      "name": "renounceOwnership",
      "outputs": [],
      "stateMutability": "nonpayable",
      "type": "function"
    },
    {
      "inputs": [
        {
          "internalType": "address",
          "name": "",
          "type": "address"
        }
      ],
      "name": "rewardsEarned",
      "outputs": [
        {
          "internalType": "uint256",
          "name": "",
          "type": "uint256"
        }
      ],
      "stateMutability": "view",
      "type": "function"
    },
    {
      "inputs": [
        {
          "internalType": "address",
          "name": "attestor",
          "type": "address"
        },
        {
          "internalType": "uint256",
          "name": "amount",
          "type": "uint256"
        }
      ],
      "name": "slash",
      "outputs": [],
      "stateMutability": "nonpayable",
      "type": "function"
    },
    {
      "inputs": [],
      "name": "stakeETH",
      "outputs": [],
      "stateMutability": "payable",
      "type": "function"
    },
    {
      "inputs": [
        {
          "internalType": "address",
          "name": "",
          "type": "address"
        }
      ],
      "name": "successfulAttestations",
      "outputs": [
        {
          "internalType": "uint256",
          "name": "",
          "type": "uint256"
        }
      ],
      "stateMutability": "view",
      "type": "function"
    },
    {
      "inputs": [
        {
          "internalType": "address",
          "name": "",
          "type": "address"
        }
      ],
      "name": "totalAttestationsCount",
      "outputs": [
        {
          "internalType": "uint256",
          "name": "",
          "type": "uint256"
        }
      ],
      "stateMutability": "view",
      "type": "function"
    },
    {
      "inputs": [
        {
          "internalType": "address",
          "name": "",
          "type": "address"
        }
      ],
      "name": "totalRewardsClaimed",
      "outputs": [
        {
          "internalType": "uint256",
          "name": "",
          "type": "uint256"
        }
      ],
      "stateMutability": "view",
      "type": "function"
    },
    {
      "inputs": [
        {
          "internalType": "uint256",
          "name": "",
          "type": "uint256"
        }
      ],
      "name": "totalStakePerClaim",
      "outputs": [
        {
          "internalType": "uint256",
          "name": "",
          "type": "uint256"
        }
      ],
      "stateMutability": "view",
      "type": "function"
    },
    {
      "inputs": [
        {
          "internalType": "address",
          "name": "newOwner",
          "type": "address"
        }
      ],
      "name": "transferOwnership",
      "outputs": [],
      "stateMutability": "nonpayable",
      "type": "function"
    },
    {
      "inputs": [
        {
          "internalType": "uint256",
          "name": "claimId",
          "type": "uint256"
        }
      ],
      "name": "unflagClaim",
      "outputs": [],
      "stateMutability": "nonpayable",
      "type": "function"
    },
    {
      "inputs": [
        {
          "internalType": "uint256",
          "name": "",
          "type": "uint256"
        }
      ],
      "name": "verificationRecorded",
      "outputs": [
        {
          "internalType": "bool",
          "name": "",
          "type": "bool"
        }
      ],
      "stateMutability": "view",
      "type": "function"
    }
  ],
  "bytecode": "0x60806040523480156200001157600080fd5b5033600073ffffffffffffffffffffffffffffffffffffffff168173ffffffffffffffffffffffffffffffffffffffff1603620000885760006040517f1e4fbdf70000000000000000000000000000000000000000000000000000000081526004016200007f9190620001a9565b60405180910390fd5b6200009981620000a060201b60201c565b50620001c6565b60008060009054906101000a900473ffffffffffffffffffffffffffffffffffffffff169050816000806101000a81548173ffffffffffffffffffffffffffffffffffffffff021916908373ffffffffffffffffffffffffffffffffffffffff1602179055508173ffffffffffffffffffffffffffffffffffffffff168173ffffffffffffffffffffffffffffffffffffffff167f8be0079c531659141344cd1fd0a4f28419497f9722a3daafe3b4186f6b6457e060405160405180910390a35050565b600073ffffffffffffffffffffffffffffffffffffffff82169050919050565b6000620001918262000164565b9050919050565b620001a38162000184565b82525050565b6000602082019050620001c0600083018462000198565b92915050565b61374480620001d66000396000f3fe6080604052600436106101ee5760003560e01c80638edc376e1161010d578063d854fb75116100a0578063e7e3ccb31161006f578063e7e3ccb3146106ed578063f2a20ea914610718578063f2fde38b14610755578063f6ce90041461077e578063fe1faae5146107bb576101ee565b8063d854fb7514610664578063dcb6eed31461068f578063dceb986d146106ba578063e0c02422146106c4576101ee565b8063ad2df05f116100dc578063ad2df05f1461057e578063b4afe396146105bb578063b70f402d146105e6578063d6b874c214610623576101ee565b80638edc376e1461049e5780639b6f6c18146104db578063a49a7c2f14610518578063aa73d25c14610541576101ee565b80634435041711610185578063715018a611610154578063715018a61461041557806388e38c0d1461042c5780638bfea439146104365780638da5cb5b14610473576101ee565b806344350417146103355780634acee387146103725780635e09eea11461039b578063646b6484146103d8576101ee565b80632cec9e66116101c15780632cec9e661461028f578063334b2b61146102cc578063372500ab146102f557806342be73161461030c576101ee565b806302fb4d85146101f35780631338e9571461021c5780631aa3a0081461025a5780631b0493ed14610264575b600080fd5b3480156101ff57600080fd5b5061021a600480360381019061021591906124a3565b6107f8565b005b34801561022857600080fd5b50610243600480360381019061023e91906124e3565b6109fb565b60405161025192919061253a565b60405180910390f35b610262610a2c565b005b34801561027057600080fd5b50610279610b6f565b6040516102869190612563565b60405180910390f35b34801561029b57600080fd5b506102b660048036038101906102b191906124e3565b610b7b565b6040516102c39190612563565b60405180910390f35b3480156102d857600080fd5b506102f360048036038101906102ee919061257e565b610b93565b005b34801561030157600080fd5b5061030a610fc5565b005b34801561031857600080fd5b50610333600480360381019061032e91906125d7565b6111e5565b005b34801561034157600080fd5b5061035c6004803603810190610357919061257e565b6114a3565b6040516103699190612563565b60405180910390f35b34801561037e57600080fd5b506103996004803603810190610394919061257e565b6114bb565b005b3480156103a757600080fd5b506103c260048036038101906103bd91906124e3565b611511565b6040516103cf9190612563565b60405180910390f35b3480156103e457600080fd5b506103ff60048036038101906103fa9190612617565b611642565b60405161040c9190612666565b60405180910390f35b34801561042157600080fd5b5061042a611690565b005b6104346116a4565b005b34801561044257600080fd5b5061045d600480360381019061045891906124e3565b61173f565b60405161046a9190612563565b60405180910390f35b34801561047f57600080fd5b50610488611757565b6040516104959190612666565b60405180910390f35b3480156104aa57600080fd5b506104c560048036038101906104c0919061257e565b611780565b6040516104d29190612681565b60405180910390f35b3480156104e757600080fd5b5061050260048036038101906104fd91906124e3565b6117a0565b60405161050f9190612563565b60405180910390f35b34801561052457600080fd5b5061053f600480360381019061053a919061257e565b6117b8565b005b34801561054d57600080fd5b506105686004803603810190610563919061257e565b611b1f565b6040516105759190612563565b60405180910390f35b34801561058a57600080fd5b506105a560048036038101906105a0919061257e565b611b37565b6040516105b2919061272c565b60405180910390f35b3480156105c757600080fd5b506105d0611bd7565b6040516105dd9190612563565b60405180910390f35b3480156105f257600080fd5b5061060d6004803603810190610608919061257e565b611be3565b60405161061a9190612681565b60405180910390f35b34801561062f57600080fd5b5061064a600480360381019061064591906124e3565b611c03565b60405161065b95949392919061274e565b60405180910390f35b34801561067057600080fd5b50610679611d27565b6040516106869190612563565b60405180910390f35b34801561069b57600080fd5b506106a4611d2f565b6040516106b19190612563565b60405180910390f35b6106c2611d3f565b005b3480156106d057600080fd5b506106eb60048036038101906106e69190612806565b611e1d565b005b3480156106f957600080fd5b50610702612037565b60405161070f9190612563565b60405180910390f35b34801561072457600080fd5b5061073f600480360381019061073a919061257e565b61203c565b60405161074c9190612924565b60405180910390f35b34801561076157600080fd5b5061077c600480360381019061077791906124e3565b6120dd565b005b34801561078a57600080fd5b506107a560048036038101906107a091906124e3565b612163565b6040516107b29190612563565b60405180910390f35b3480156107c757600080fd5b506107e260048036038101906107dd9190612946565b61217b565b6040516107ef9190612681565b60405180910390f35b6108006121aa565b80600160008473ffffffffffffffffffffffffffffffffffffffff1673ffffffffffffffffffffffffffffffffffffffff168152602001908152602001600020600101541015610885576040517f08c379a000000000000000000000000000000000000000000000000000000000815260040161087c906129f8565b60405180910390fd5b80600160008473ffffffffffffffffffffffffffffffffffffffff1673ffffffffffffffffffffffffffffffffffffffff16815260200190815260200160002060010160008282546108d79190612a47565b9250508190555060006108e8611757565b73ffffffffffffffffffffffffffffffffffffffff168260405161090b90612aac565b60006040518083038185875af1925050503d8060008114610948576040519150601f19603f3d011682016040523d82523d6000602084013e61094d565b606091505b5050905080610991576040517f08c379a000000000000000000000000000000000000000000000000000000000815260040161098890612b33565b60405180910390fd5b3373ffffffffffffffffffffffffffffffffffffffff168373ffffffffffffffffffffffffffffffffffffffff167f17ff607dd7cf1333a3831d9a89b5ad021f32375b6eb88422b126530eb61deb8e846040516109ee9190612563565b60405180910390a3505050565b60016020528060005260406000206000915090508060000160009054906101000a900460ff16908060010154905082565b600160003373ffffffffffffffffffffffffffffffffffffffff1673ffffffffffffffffffffffffffffffffffffffff16815260200190815260200160002060000160009054906101000a900460ff1615610abc576040517f08c379a0000000000000000000000000000000000000000000000000000000008152600401610ab390612bc5565b60405180910390fd5b60018060003373ffffffffffffffffffffffffffffffffffffffff1673ffffffffffffffffffffffffffffffffffffffff16815260200190815260200160002060000160006101000a81548160ff0219169083151502179055503373ffffffffffffffffffffffffffffffffffffffff167f33670d4500da202e23e51fca99d5ef6ff8755f4cb476e69700364cdd49d27eb060405160405180910390a26000341115610b6d57610b6c3334612231565b5b565b670429d069189e000081565b60096020528060005260406000206000915090505481565b600160003373ffffffffffffffffffffffffffffffffffffffff1673ffffffffffffffffffffffffffffffffffffffff16815260200190815260200160002060000160009054906101000a900460ff16610c22576040517f08c379a0000000000000000000000000000000000000000000000000000000008152600401610c1990612c31565b60405180910390fd5b6000600160003373ffffffffffffffffffffffffffffffffffffffff1673ffffffffffffffffffffffffffffffffffffffff1681526020019081526020016000206001015411610ca7576040517f08c379a0000000000000000000000000000000000000000000000000000000008152600401610c9e90612c9d565b60405180910390fd5b6002600082815260200190815260200160002060003373ffffffffffffffffffffffffffffffffffffffff1673ffffffffffffffffffffffffffffffffffffffff16815260200190815260200160002060009054906101000a900460ff1615610d45576040517f08c379a0000000000000000000000000000000000000000000000000000000008152600401610d3c90612d2f565b60405180910390fd5b6007600082815260200190815260200160002060009054906101000a900460ff1615610da6576040517f08c379a0000000000000000000000000000000000000000000000000000000008152600401610d9d90612dc1565b60405180910390fd5b60016002600083815260200190815260200160002060003373ffffffffffffffffffffffffffffffffffffffff1673ffffffffffffffffffffffffffffffffffffffff16815260200190815260200160002060006101000a81548160ff0219169083151502179055506000600160003373ffffffffffffffffffffffffffffffffffffffff1673ffffffffffffffffffffffffffffffffffffffff16815260200190815260200160002060010154905080600360008481526020019081526020016000206000828254610e799190612de1565b92505081905550600460008381526020019081526020016000206000815480929190610ea490612e15565b919050555060056000838152602001908152602001600020339080600181540180825580915050600190039060005260206000200160009091909190916101000a81548173ffffffffffffffffffffffffffffffffffffffff021916908373ffffffffffffffffffffffffffffffffffffffff160217905550600960003373ffffffffffffffffffffffffffffffffffffffff1673ffffffffffffffffffffffffffffffffffffffff1681526020019081526020016000206000815480929190610f6d90612e15565b91905055503373ffffffffffffffffffffffffffffffffffffffff16827f1c5c66074053c74c20d7a74fe4f6ed8e174b215cd273abeefa1fe8b70061be8983604051610fb99190612563565b60405180910390a35050565b6000600a60003373ffffffffffffffffffffffffffffffffffffffff1673ffffffffffffffffffffffffffffffffffffffff1681526020019081526020016000205490506000811161104c576040517f08c379a000000000000000000000000000000000000000000000000000000000815260040161104390612ecf565b60405180910390fd5b6000600a60003373ffffffffffffffffffffffffffffffffffffffff1673ffffffffffffffffffffffffffffffffffffffff1681526020019081526020016000208190555080600b60003373ffffffffffffffffffffffffffffffffffffffff1673ffffffffffffffffffffffffffffffffffffffff16815260200190815260200160002060008282546110e09190612de1565b9250508190555060003373ffffffffffffffffffffffffffffffffffffffff168260405161110d90612aac565b60006040518083038185875af1925050503d806000811461114a576040519150601f19603f3d011682016040523d82523d6000602084013e61114f565b606091505b5050905080611193576040517f08c379a000000000000000000000000000000000000000000000000000000000815260040161118a90612f61565b60405180910390fd5b3373ffffffffffffffffffffffffffffffffffffffff167ffc30cddea38e2bf4d6ea7d3f9ed3b6ad7f176419f4963bd81318067a4aee73fe836040516111d99190612563565b60405180910390a25050565b6111ed6121aa565b600c600083815260200190815260200160002060009054906101000a900460ff161561124e576040517f08c379a000000000000000000000000000000000000000000000000000000000815260040161124590612ff3565b60405180910390fd5b6001600c600084815260200190815260200160002060006101000a81548160ff02191690831515021790555060006005600084815260200190815260200160002080548060200260200160405190810160405280929190818152602001828054801561130f57602002820191906000526020600020905b8160009054906101000a900473ffffffffffffffffffffffffffffffffffffffff1673ffffffffffffffffffffffffffffffffffffffff16815260200190600101908083116112c5575b5050505050905060005b815181101561146557600082828151811061133757611336613013565b5b60200260200101519050831561145157600860008273ffffffffffffffffffffffffffffffffffffffff1673ffffffffffffffffffffffffffffffffffffffff168152602001908152602001600020600081548092919061139790612e15565b9190505550670429d069189e0000600a60008373ffffffffffffffffffffffffffffffffffffffff1673ffffffffffffffffffffffffffffffffffffffff16815260200190815260200160002060008282546113f39190612de1565b925050819055508073ffffffffffffffffffffffffffffffffffffffff167f578afab8065b30a5e9827120e4905b8a1810e180d2f793ca54af6f7633f4e57a670429d069189e00006040516114489190612563565b60405180910390a25b50808061145d90612e15565b915050611319565b50827f99eeb208498ed096ef73283e828595840a22cb4db6be1ad86f41deaef2959576836040516114969190612681565b60405180910390a2505050565b60046020528060005260406000206000915090505481565b6114c36121aa565b60006007600083815260200190815260200160002060006101000a81548160ff02191690831515021790555060066000828152602001908152602001600020600061150e91906123a8565b50565b600080600960008473ffffffffffffffffffffffffffffffffffffffff1673ffffffffffffffffffffffffffffffffffffffff1681526020019081526020016000205490506000810361156857600091505061163d565b6000600860008573ffffffffffffffffffffffffffffffffffffffff1673ffffffffffffffffffffffffffffffffffffffff1681526020019081526020016000205490506000826064836115bc9190613042565b6115c691906130b3565b9050600060646046836115d99190613042565b6115e391906130b3565b90506000600f85101561160e57600f601e866115ff9190613042565b61160991906130b3565b611611565b601e5b9050600081836116219190612de1565b9050606481116116315780611634565b60645b96505050505050505b919050565b6005602052816000526040600020818154811061165e57600080fd5b906000526020600020016000915091509054906101000a900473ffffffffffffffffffffffffffffffffffffffff1681565b6116986121aa565b6116a260006122dc565b565b670c7d713b49da00003410156116ef576040517f08c379a00000000000000000000000000000000000000000000000000000000081526004016116e690613156565b60405180910390fd5b3373ffffffffffffffffffffffffffffffffffffffff167f490871733cb1e063243714dc879735601cae8eb90ec8d3a99ec874b322e5f429346040516117359190612563565b60405180910390a2565b600a6020528060005260406000206000915090505481565b60008060009054906101000a900473ffffffffffffffffffffffffffffffffffffffff16905090565b600c6020528060005260406000206000915054906101000a900460ff1681565b60086020528060005260406000206000915090505481565b6007600082815260200190815260200160002060009054906101000a900460ff1615611819576040517f08c379a000000000000000000000000000000000000000000000000000000000815260040161181090612dc1565b60405180910390fd5b600360046000838152602001908152602001600020541015611870576040517f08c379a0000000000000000000000000000000000000000000000000000000008152600401611867906131e8565b60405180910390fd5b600c600082815260200190815260200160002060009054906101000a900460ff16156118d1576040517f08c379a00000000000000000000000000000000000000000000000000000000081526004016118c89061327a565b60405180910390fd5b6001600c600083815260200190815260200160002060006101000a81548160ff02191690831515021790555060006005600083815260200190815260200160002080548060200260200160405190810160405280929190818152602001828054801561199257602002820191906000526020600020905b8160009054906101000a900473ffffffffffffffffffffffffffffffffffffffff1673ffffffffffffffffffffffffffffffffffffffff1681526020019060010190808311611948575b5050505050905060005b8151811015611ae15760008282815181106119ba576119b9613013565b5b60200260200101519050600860008273ffffffffffffffffffffffffffffffffffffffff1673ffffffffffffffffffffffffffffffffffffffff1681526020019081526020016000206000815480929190611a1490612e15565b9190505550670429d069189e0000600a60008373ffffffffffffffffffffffffffffffffffffffff1673ffffffffffffffffffffffffffffffffffffffff1681526020019081526020016000206000828254611a709190612de1565b925050819055508073ffffffffffffffffffffffffffffffffffffffff167f578afab8065b30a5e9827120e4905b8a1810e180d2f793ca54af6f7633f4e57a670429d069189e0000604051611ac59190612563565b60405180910390a2508080611ad990612e15565b91505061199c565b50817f99eeb208498ed096ef73283e828595840a22cb4db6be1ad86f41deaef29595766001604051611b139190612681565b60405180910390a25050565b60036020528060005260406000206000915090505481565b60066020528060005260406000206000915090508054611b56906132c9565b80601f0160208091040260200160405190810160405280929190818152602001828054611b82906132c9565b8015611bcf5780601f10611ba457610100808354040283529160200191611bcf565b820191906000526020600020905b815481529060010190602001808311611bb257829003601f168201915b505050505081565b670c7d713b49da000081565b60076020528060005260406000206000915054906101000a900460ff1681565b6000806000806000600960008773ffffffffffffffffffffffffffffffffffffffff1673ffffffffffffffffffffffffffffffffffffffff168152602001908152602001600020549450600860008773ffffffffffffffffffffffffffffffffffffffff1673ffffffffffffffffffffffffffffffffffffffff168152602001908152602001600020549350600a60008773ffffffffffffffffffffffffffffffffffffffff1673ffffffffffffffffffffffffffffffffffffffff168152602001908152602001600020549250600b60008773ffffffffffffffffffffffffffffffffffffffff1673ffffffffffffffffffffffffffffffffffffffff168152602001908152602001600020549150611d1c86611511565b905091939590929450565b600047905090565b6000670c7d713b49da0000905090565b600160003373ffffffffffffffffffffffffffffffffffffffff1673ffffffffffffffffffffffffffffffffffffffff16815260200190815260200160002060000160009054906101000a900460ff16611dce576040517f08c379a0000000000000000000000000000000000000000000000000000000008152600401611dc590612c31565b60405180910390fd5b60003411611e11576040517f08c379a0000000000000000000000000000000000000000000000000000000008152600401611e0890613346565b60405180910390fd5b611e1b3334612231565b565b600160003373ffffffffffffffffffffffffffffffffffffffff1673ffffffffffffffffffffffffffffffffffffffff16815260200190815260200160002060000160009054906101000a900460ff16611eac576040517f08c379a0000000000000000000000000000000000000000000000000000000008152600401611ea390612c31565b60405180910390fd5b6000600160003373ffffffffffffffffffffffffffffffffffffffff1673ffffffffffffffffffffffffffffffffffffffff1681526020019081526020016000206001015411611f31576040517f08c379a0000000000000000000000000000000000000000000000000000000008152600401611f2890612c9d565b60405180910390fd5b6007600084815260200190815260200160002060009054906101000a900460ff1615611f92576040517f08c379a0000000000000000000000000000000000000000000000000000000008152600401611f89906133d8565b60405180910390fd5b60016007600085815260200190815260200160002060006101000a81548160ff0219169083151502179055508181600660008681526020019081526020016000209182611fe09291906135de565b503373ffffffffffffffffffffffffffffffffffffffff16837f26a8353c8ae06ada5d36914b5cdaa2c6cf1c81d1e8ecbb97d115ddb2d24177b2848460405161202a9291906136ea565b60405180910390a3505050565b600381565b6060600560008381526020019081526020016000208054806020026020016040519081016040528092919081815260200182805480156120d157602002820191906000526020600020905b8160009054906101000a900473ffffffffffffffffffffffffffffffffffffffff1673ffffffffffffffffffffffffffffffffffffffff1681526020019060010190808311612087575b50505050509050919050565b6120e56121aa565b600073ffffffffffffffffffffffffffffffffffffffff168173ffffffffffffffffffffffffffffffffffffffff16036121575760006040517f1e4fbdf700000000000000000000000000000000000000000000000000000000815260040161214e9190612666565b60405180910390fd5b612160816122dc565b50565b600b6020528060005260406000206000915090505481565b60026020528160005260406000206020528060005260406000206000915091509054906101000a900460ff1681565b6121b26123a0565b73ffffffffffffffffffffffffffffffffffffffff166121d0611757565b73ffffffffffffffffffffffffffffffffffffffff161461222f576121f36123a0565b6040517f118cdaa70000000000000000000000000000000000000000000000000000000081526004016122269190612666565b60405180910390fd5b565b80600160008473ffffffffffffffffffffffffffffffffffffffff1673ffffffffffffffffffffffffffffffffffffffff16815260200190815260200160002060010160008282546122839190612de1565b925050819055508173ffffffffffffffffffffffffffffffffffffffff167f7c717985ac273e663b7f3050f5b15a4388ff6ed952338954f650e2093e13937f826040516122d09190612563565b60405180910390a25050565b60008060009054906101000a900473ffffffffffffffffffffffffffffffffffffffff169050816000806101000a81548173ffffffffffffffffffffffffffffffffffffffff021916908373ffffffffffffffffffffffffffffffffffffffff1602179055508173ffffffffffffffffffffffffffffffffffffffff168173ffffffffffffffffffffffffffffffffffffffff167f8be0079c531659141344cd1fd0a4f28419497f9722a3daafe3b4186f6b6457e060405160405180910390a35050565b600033905090565b5080546123b4906132c9565b6000825580601f106123c657506123e5565b601f0160209004906000526020600020908101906123e491906123e8565b5b50565b5b808211156124015760008160009055506001016123e9565b5090565b600080fd5b600080fd5b600073ffffffffffffffffffffffffffffffffffffffff82169050919050565b600061243a8261240f565b9050919050565b61244a8161242f565b811461245557600080fd5b50565b60008135905061246781612441565b92915050565b6000819050919050565b6124808161246d565b811461248b57600080fd5b50565b60008135905061249d81612477565b92915050565b600080604083850312156124ba576124b9612405565b5b60006124c885828601612458565b92505060206124d98582860161248e565b9150509250929050565b6000602082840312156124f9576124f8612405565b5b600061250784828501612458565b91505092915050565b60008115159050919050565b61252581612510565b82525050565b6125348161246d565b82525050565b600060408201905061254f600083018561251c565b61255c602083018461252b565b9392505050565b6000602082019050612578600083018461252b565b92915050565b60006020828403121561259457612593612405565b5b60006125a28482850161248e565b91505092915050565b6125b481612510565b81146125bf57600080fd5b50565b6000813590506125d1816125ab565b92915050565b600080604083850312156125ee576125ed612405565b5b60006125fc8582860161248e565b925050602061260d858286016125c2565b9150509250929050565b6000806040838503121561262e5761262d612405565b5b600061263c8582860161248e565b925050602061264d8582860161248e565b9150509250929050565b6126608161242f565b82525050565b600060208201905061267b6000830184612657565b92915050565b6000602082019050612696600083018461251c565b92915050565b600081519050919050565b600082825260208201905092915050565b60005b838110156126d65780820151818401526020810190506126bb565b60008484015250505050565b6000601f19601f8301169050919050565b60006126fe8261269c565b61270881856126a7565b93506127188185602086016126b8565b612721816126e2565b840191505092915050565b6000602082019050818103600083015261274681846126f3565b905092915050565b600060a082019050612763600083018861252b565b612770602083018761252b565b61277d604083018661252b565b61278a606083018561252b565b612797608083018461252b565b9695505050505050565b600080fd5b600080fd5b600080fd5b60008083601f8401126127c6576127c56127a1565b5b8235905067ffffffffffffffff8111156127e3576127e26127a6565b5b6020830191508360018202830111156127ff576127fe6127ab565b5b9250929050565b60008060006040848603121561281f5761281e612405565b5b600061282d8682870161248e565b935050602084013567ffffffffffffffff81111561284e5761284d61240a565b5b61285a868287016127b0565b92509250509250925092565b600081519050919050565b600082825260208201905092915050565b6000819050602082019050919050565b61289b8161242f565b82525050565b60006128ad8383612892565b60208301905092915050565b6000602082019050919050565b60006128d182612866565b6128db8185612871565b93506128e683612882565b8060005b838110156129175781516128fe88826128a1565b9750612909836128b9565b9250506001810190506128ea565b5085935050505092915050565b6000602082019050818103600083015261293e81846128c6565b905092915050565b6000806040838503121561295d5761295c612405565b5b600061296b8582860161248e565b925050602061297c85828601612458565b9150509250929050565b7f4174746573746f7252656769737472793a20696e73756666696369656e74207360008201527f74616b6500000000000000000000000000000000000000000000000000000000602082015250565b60006129e26024836126a7565b91506129ed82612986565b604082019050919050565b60006020820190508181036000830152612a11816129d5565b9050919050565b7f4e487b7100000000000000000000000000000000000000000000000000000000600052601160045260246000fd5b6000612a528261246d565b9150612a5d8361246d565b9250828203905081811115612a7557612a74612a18565b5b92915050565b600081905092915050565b50565b6000612a96600083612a7b565b9150612aa182612a86565b600082019050919050565b6000612ab782612a89565b9150819050919050565b7f4174746573746f7252656769737472793a206661696c656420746f2073656e6460008201527f20736c61736865642066756e6473000000000000000000000000000000000000602082015250565b6000612b1d602e836126a7565b9150612b2882612ac1565b604082019050919050565b60006020820190508181036000830152612b4c81612b10565b9050919050565b7f4174746573746f7252656769737472793a20616c72656164792072656769737460008201527f6572656400000000000000000000000000000000000000000000000000000000602082015250565b6000612baf6024836126a7565b9150612bba82612b53565b604082019050919050565b60006020820190508181036000830152612bde81612ba2565b9050919050565b7f4174746573746f7252656769737472793a206e6f742072656769737465726564600082015250565b6000612c1b6020836126a7565b9150612c2682612be5565b602082019050919050565b60006020820190508181036000830152612c4a81612c0e565b9050919050565b7f4174746573746f7252656769737472793a206e6f207374616b65000000000000600082015250565b6000612c87601a836126a7565b9150612c9282612c51565b602082019050919050565b60006020820190508181036000830152612cb681612c7a565b9050919050565b7f4174746573746f7252656769737472793a20616c72656164792061747465737460008201527f6564000000000000000000000000000000000000000000000000000000000000602082015250565b6000612d196022836126a7565b9150612d2482612cbd565b604082019050919050565b60006020820190508181036000830152612d4881612d0c565b9050919050565b7f4174746573746f7252656769737472793a20636c61696d20697320666c61676760008201527f6564000000000000000000000000000000000000000000000000000000000000602082015250565b6000612dab6022836126a7565b9150612db682612d4f565b604082019050919050565b60006020820190508181036000830152612dda81612d9e565b9050919050565b6000612dec8261246d565b9150612df78361246d565b9250828201905080821115612e0f57612e0e612a18565b5b92915050565b6000612e208261246d565b91507fffffffffffffffffffffffffffffffffffffffffffffffffffffffffffffffff8203612e5257612e51612a18565b5b600182019050919050565b7f4174746573746f7252656769737472793a206e6f207265776172647320746f2060008201527f636c61696d000000000000000000000000000000000000000000000000000000602082015250565b6000612eb96025836126a7565b9150612ec482612e5d565b604082019050919050565b60006020820190508181036000830152612ee881612eac565b9050919050565b7f4174746573746f7252656769737472793a206661696c656420746f2073656e6460008201527f2072657761726473000000000000000000000000000000000000000000000000602082015250565b6000612f4b6028836126a7565b9150612f5682612eef565b604082019050919050565b60006020820190508181036000830152612f7a81612f3e565b9050919050565b7f4174746573746f7252656769737472793a20766572696669636174696f6e206160008201527f6c7265616479207265636f726465640000000000000000000000000000000000602082015250565b6000612fdd602f836126a7565b9150612fe882612f81565b604082019050919050565b6000602082019050818103600083015261300c81612fd0565b9050919050565b7f4e487b7100000000000000000000000000000000000000000000000000000000600052603260045260246000fd5b600061304d8261246d565b91506130588361246d565b92508282026130668161246d565b9150828204841483151761307d5761307c612a18565b5b5092915050565b7f4e487b7100000000000000000000000000000000000000000000000000000000600052601260045260246000fd5b60006130be8261246d565b91506130c98361246d565b9250826130d9576130d8613084565b5b828204905092915050565b7f4174746573746f7252656769737472793a20696e73756666696369656e74206160008201527f74746573746174696f6e20666565000000000000000000000000000000000000602082015250565b6000613140602e836126a7565b915061314b826130e4565b604082019050919050565b6000602082019050818103600083015261316f81613133565b9050919050565b7f4174746573746f7252656769737472793a206e6f7420656e6f7567682061747460008201527f6573746f72730000000000000000000000000000000000000000000000000000602082015250565b60006131d26026836126a7565b91506131dd82613176565b604082019050919050565b60006020820190508181036000830152613201816131c5565b9050919050565b7f4174746573746f7252656769737472793a20616c7265616479207265636f726460008201527f6564000000000000000000000000000000000000000000000000000000000000602082015250565b60006132646022836126a7565b915061326f82613208565b604082019050919050565b6000602082019050818103600083015261329381613257565b9050919050565b7f4e487b7100000000000000000000000000000000000000000000000000000000600052602260045260246000fd5b600060028204905060018216806132e157607f821691505b6020821081036132f4576132f361329a565b5b50919050565b7f4174746573746f7252656769737472793a206e6f2076616c75652073656e7400600082015250565b6000613330601f836126a7565b915061333b826132fa565b602082019050919050565b6000602082019050818103600083015261335f81613323565b9050919050565b7f4174746573746f7252656769737472793a20616c726561647920666c6167676560008201527f6400000000000000000000000000000000000000000000000000000000000000602082015250565b60006133c26021836126a7565b91506133cd82613366565b604082019050919050565b600060208201905081810360008301526133f1816133b5565b9050919050565b600082905092915050565b7f4e487b7100000000000000000000000000000000000000000000000000000000600052604160045260246000fd5b60008190508160005260206000209050919050565b60006020601f8301049050919050565b600082821b905092915050565b6000600883026134947fffffffffffffffffffffffffffffffffffffffffffffffffffffffffffffffff82613457565b61349e8683613457565b95508019841693508086168417925050509392505050565b6000819050919050565b60006134db6134d66134d18461246d565b6134b6565b61246d565b9050919050565b6000819050919050565b6134f5836134c0565b613509613501826134e2565b848454613464565b825550505050565b600090565b61351e613511565b6135298184846134ec565b505050565b5b8181101561354d57613542600082613516565b60018101905061352f565b5050565b601f8211156135925761356381613432565b61356c84613447565b8101602085101561357b578190505b61358f61358785613447565b83018261352e565b50505b505050565b600082821c905092915050565b60006135b560001984600802613597565b1980831691505092915050565b60006135ce83836135a4565b9150826002028217905092915050565b6135e883836133f8565b67ffffffffffffffff81111561360157613600613403565b5b61360b82546132c9565b613616828285613551565b6000601f8311600181146136455760008415613633578287013590505b61363d85826135c2565b8655506136a5565b601f19841661365386613432565b60005b8281101561367b57848901358255600182019150602085019450602081019050613656565b868310156136985784890135613694601f8916826135a4565b8355505b6001600288020188555050505b50505050505050565b82818337600083830152505050565b60006136c983856126a7565b93506136d68385846136ae565b6136df836126e2565b840190509392505050565b600060208201905081810360008301526137058184866136bd565b9050939250505056fea2646970667358221220dc945eaf51ccab792460373e42881c3e895021f68ebf2ba40f8db94322cccf6d64736f6c63430008140033",
  "linkReferences": {},
  "deployedLinkReferences": {}
}