{
  "_format": "hh-sol-artifact-1",
  "contractName": "AttestorRegistry",
  "sourceName": "contracts/AttestorRegistry.sol",
  "abi": [
    {
      "inputs": [],
      "stateMutability": "nonpayable",
      "type": "constructor"
    },
    {
      "inputs": [
        {
          "internalType": "address",
          "name": "owner",
          "type": "address"
        }
      ],
      "name": "OwnableInvalidOwner",
      "type": "error"
    },
    {
      "inputs": [
        {
          "internalType": "address",
          "name": "account",
          "type": "address"
        }
      ],
      "name": "OwnableUnauthorizedAccount",
      "type": "error"
    },
    {
      "anonymous": false,
      "inputs": [
        {
          "indexed": true,
          "internalType": "address",
          "name": "attestor",
          "type": "address"
        }
      ],
      "name": "AttestorRegistered",
      "type": "event"
    },
    {
      "anonymous": false,
      "inputs": [
        {
          "indexed": true,
          "internalType": "address",
          "name": "attestor",
          "type": "address"
        },
        {
          "indexed": false,
          "internalType": "uint256",
          "name": "amount",
          "type": "uint256"
        },
        {
          "indexed": true,
          "internalType": "address",
          "name": "slasher",
          "type": "address"
        }
      ],
      "name": "AttestorSlashed",
      "type": "event"
    },
    {
      "anonymous": false,
      "inputs": [
        {
          "indexed": true,
          "internalType": "uint256",
          "name": "claimId",
          "type": "uint256"
        },
        {
          "indexed": true,
          "internalType": "address",
          "name": "attestor",
          "type": "address"
        },
        {
          "indexed": false,
          "internalType": "uint256",
          "name": "stakeAmount",
          "type": "uint256"
        }
      ],
      "name": "ClaimAttested",
      "type": "event"
    },
    {
      "anonymous": false,
      "inputs": [
        {
          "indexed": true,
          "internalType": "address",
          "name": "previousOwner",
          "type": "address"
        },
        {
          "indexed": true,
          "internalType": "address",
          "name": "newOwner",
          "type": "address"
        }
      ],
      "name": "OwnershipTransferred",
      "type": "event"
    },
    {
      "anonymous": false,
      "inputs": [
        {
          "indexed": true,
          "internalType": "address",
          "name": "attestor",
          "type": "address"
        },
        {
          "indexed": false,
          "internalType": "uint256",
          "name": "amount",
          "type": "uint256"
        }
      ],
      "name": "StakeAdded",
      "type": "event"
    },
    {
      "inputs": [
        {
          "internalType": "uint256",
          "name": "claimId",
          "type": "uint256"
        }
      ],
      "name": "attestToClaim",
      "outputs": [],
      "stateMutability": "nonpayable",
      "type": "function"
    },
    {
      "inputs": [
        {
          "internalType": "address",
          "name": "",
          "type": "address"
        }
      ],
      "name": "attestors",
      "outputs": [
        {
          "internalType": "bool",
          "name": "isRegistered",
          "type": "bool"
        },
        {
          "internalType": "uint256",
          "name": "stake",
          "type": "uint256"
        }
      ],
      "stateMutability": "view",
      "type": "function"
    },
    {
      "inputs": [
        {
          "internalType": "uint256",
          "name": "",
          "type": "uint256"
        },
        {
          "internalType": "address",
          "name": "",
          "type": "address"
        }
      ],
      "name": "hasAttested",
      "outputs": [
        {
          "internalType": "bool",
          "name": "",
          "type": "bool"
        }
      ],
      "stateMutability": "view",
      "type": "function"
    },
    {
      "inputs": [],
      "name": "owner",
      "outputs": [
        {
          "internalType": "address",
          "name": "",
          "type": "address"
        }
      ],
      "stateMutability": "view",
      "type": "function"
    },
    {
      "inputs": [],
      "name": "register",
      "outputs": [],
      "stateMutability": "payable",
      "type": "function"
    },
    {
      "inputs": [],
      "name": "renounceOwnership",
      "outputs": [],
      "stateMutability": "nonpayable",
      "type": "function"
    },
    {
      "inputs": [
        {
          "internalType": "address",
          "name": "attestor",
          "type": "address"
        },
        {
          "internalType": "uint256",
          "name": "amount",
          "type": "uint256"
        }
      ],
      "name": "slash",
      "outputs": [],
      "stateMutability": "nonpayable",
      "type": "function"
    },
    {
      "inputs": [],
      "name": "stakeETH",
      "outputs": [],
      "stateMutability": "payable",
      "type": "function"
    },
    {
      "inputs": [
        {
          "internalType": "uint256",
          "name": "",
          "type": "uint256"
        }
      ],
      "name": "totalStakePerClaim",
      "outputs": [
        {
          "internalType": "uint256",
          "name": "",
          "type": "uint256"
        }
      ],
      "stateMutability": "view",
      "type": "function"
    },
    {
      "inputs": [
        {
          "internalType": "address",
          "name": "newOwner",
          "type": "address"
        }
      ],
      "name": "transferOwnership",
      "outputs": [],
      "stateMutability": "nonpayable",
      "type": "function"
    }
  ],
  "bytecode": "0x60806040523480156200001157600080fd5b5033600073ffffffffffffffffffffffffffffffffffffffff168173ffffffffffffffffffffffffffffffffffffffff1603620000885760006040517f1e4fbdf70000000000000000000000000000000000000000000000000000000081526004016200007f9190620001a9565b60405180910390fd5b6200009981620000a060201b60201c565b50620001c6565b60008060009054906101000a900473ffffffffffffffffffffffffffffffffffffffff169050816000806101000a81548173ffffffffffffffffffffffffffffffffffffffff021916908373ffffffffffffffffffffffffffffffffffffffff1602179055508173ffffffffffffffffffffffffffffffffffffffff168173ffffffffffffffffffffffffffffffffffffffff167f8be0079c531659141344cd1fd0a4f28419497f9722a3daafe3b4186f6b6457e060405160405180910390a35050565b600073ffffffffffffffffffffffffffffffffffffffff82169050919050565b6000620001918262000164565b9050919050565b620001a38162000184565b82525050565b6000602082019050620001c0600083018462000198565b92915050565b61133180620001d66000396000f3fe6080604052600436106100915760003560e01c80638da5cb5b116100595780638da5cb5b14610147578063aa73d25c14610172578063dceb986d146101af578063f2fde38b146101b9578063fe1faae5146101e257610091565b806302fb4d85146100965780631338e957146100bf5780631aa3a008146100fd578063334b2b6114610107578063715018a614610130575b600080fd5b3480156100a257600080fd5b506100bd60048036038101906100b89190610cf4565b61021f565b005b3480156100cb57600080fd5b506100e660048036038101906100e19190610d34565b610422565b6040516100f4929190610d8b565b60405180910390f35b610105610453565b005b34801561011357600080fd5b5061012e60048036038101906101299190610db4565b610596565b005b34801561013c57600080fd5b50610145610875565b005b34801561015357600080fd5b5061015c610889565b6040516101699190610df0565b60405180910390f35b34801561017e57600080fd5b5061019960048036038101906101949190610db4565b6108b2565b6040516101a69190610e0b565b60405180910390f35b6101b76108ca565b005b3480156101c557600080fd5b506101e060048036038101906101db9190610d34565b6109a8565b005b3480156101ee57600080fd5b5061020960048036038101906102049190610e26565b610a2e565b6040516102169190610e66565b60405180910390f35b610227610a5d565b80600160008473ffffffffffffffffffffffffffffffffffffffff1673ffffffffffffffffffffffffffffffffffffffff1681526020019081526020016000206001015410156102ac576040517f08c379a00000000000000000000000000000000000000000000000000000000081526004016102a390610f04565b60405180910390fd5b80600160008473ffffffffffffffffffffffffffffffffffffffff1673ffffffffffffffffffffffffffffffffffffffff16815260200190815260200160002060010160008282546102fe9190610f53565b92505081905550600061030f610889565b73ffffffffffffffffffffffffffffffffffffffff168260405161033290610fb8565b60006040518083038185875af1925050503d806000811461036f576040519150601f19603f3d011682016040523d82523d6000602084013e610374565b606091505b50509050806103b8576040517f08c379a00000000000000000000000000000000000000000000000000000000081526004016103af9061103f565b60405180910390fd5b3373ffffffffffffffffffffffffffffffffffffffff168373ffffffffffffffffffffffffffffffffffffffff167f17ff607dd7cf1333a3831d9a89b5ad021f32375b6eb88422b126530eb61deb8e846040516104159190610e0b565b60405180910390a3505050565b60016020528060005260406000206000915090508060000160009054906101000a900460ff16908060010154905082565b600160003373ffffffffffffffffffffffffffffffffffffffff1673ffffffffffffffffffffffffffffffffffffffff16815260200190815260200160002060000160009054906101000a900460ff16156104e3576040517f08c379a00000000000000000000000000000000000000000000000000000000081526004016104da906110d1565b60405180910390fd5b60018060003373ffffffffffffffffffffffffffffffffffffffff1673ffffffffffffffffffffffffffffffffffffffff16815260200190815260200160002060000160006101000a81548160ff0219169083151502179055503373ffffffffffffffffffffffffffffffffffffffff167f33670d4500da202e23e51fca99d5ef6ff8755f4cb476e69700364cdd49d27eb060405160405180910390a26000341115610594576105933334610ae4565b5b565b600160003373ffffffffffffffffffffffffffffffffffffffff1673ffffffffffffffffffffffffffffffffffffffff16815260200190815260200160002060000160009054906101000a900460ff16610625576040517f08c379a000000000000000000000000000000000000000000000000000000000815260040161061c9061113d565b60405180910390fd5b6000600160003373ffffffffffffffffffffffffffffffffffffffff1673ffffffffffffffffffffffffffffffffffffffff16815260200190815260200160002060010154116106aa576040517f08c379a00000000000000000000000000000000000000000000000000000000081526004016106a1906111a9565b60405180910390fd5b6002600082815260200190815260200160002060003373ffffffffffffffffffffffffffffffffffffffff1673ffffffffffffffffffffffffffffffffffffffff16815260200190815260200160002060009054906101000a900460ff1615610748576040517f08c379a000000000000000000000000000000000000000000000000000000000815260040161073f9061123b565b60405180910390fd5b60016002600083815260200190815260200160002060003373ffffffffffffffffffffffffffffffffffffffff1673ffffffffffffffffffffffffffffffffffffffff16815260200190815260200160002060006101000a81548160ff0219169083151502179055506000600160003373ffffffffffffffffffffffffffffffffffffffff1673ffffffffffffffffffffffffffffffffffffffff1681526020019081526020016000206001015490508060036000848152602001908152602001600020600082825461081b919061125b565b925050819055503373ffffffffffffffffffffffffffffffffffffffff16827f1c5c66074053c74c20d7a74fe4f6ed8e174b215cd273abeefa1fe8b70061be89836040516108699190610e0b565b60405180910390a35050565b61087d610a5d565b6108876000610b8f565b565b60008060009054906101000a900473ffffffffffffffffffffffffffffffffffffffff16905090565b60036020528060005260406000206000915090505481565b600160003373ffffffffffffffffffffffffffffffffffffffff1673ffffffffffffffffffffffffffffffffffffffff16815260200190815260200160002060000160009054906101000a900460ff16610959576040517f08c379a00000000000000000000000000000000000000000000000000000000081526004016109509061113d565b60405180910390fd5b6000341161099c576040517f08c379a0000000000000000000000000000000000000000000000000000000008152600401610993906112db565b60405180910390fd5b6109a63334610ae4565b565b6109b0610a5d565b600073ffffffffffffffffffffffffffffffffffffffff168173ffffffffffffffffffffffffffffffffffffffff1603610a225760006040517f1e4fbdf7000000000000000000000000000000000000000000000000000000008152600401610a199190610df0565b60405180910390fd5b610a2b81610b8f565b50565b60026020528160005260406000206020528060005260406000206000915091509054906101000a900460ff1681565b610a65610c53565b73ffffffffffffffffffffffffffffffffffffffff16610a83610889565b73ffffffffffffffffffffffffffffffffffffffff1614610ae257610aa6610c53565b6040517f118cdaa7000000000000000000000000000000000000000000000000000000008152600401610ad99190610df0565b60405180910390fd5b565b80600160008473ffffffffffffffffffffffffffffffffffffffff1673ffffffffffffffffffffffffffffffffffffffff1681526020019081526020016000206001016000828254610b36919061125b565b925050819055508173ffffffffffffffffffffffffffffffffffffffff167f7c717985ac273e663b7f3050f5b15a4388ff6ed952338954f650e2093e13937f82604051610b839190610e0b565b60405180910390a25050565b60008060009054906101000a900473ffffffffffffffffffffffffffffffffffffffff169050816000806101000a81548173ffffffffffffffffffffffffffffffffffffffff021916908373ffffffffffffffffffffffffffffffffffffffff1602179055508173ffffffffffffffffffffffffffffffffffffffff168173ffffffffffffffffffffffffffffffffffffffff167f8be0079c531659141344cd1fd0a4f28419497f9722a3daafe3b4186f6b6457e060405160405180910390a35050565b600033905090565b600080fd5b600073ffffffffffffffffffffffffffffffffffffffff82169050919050565b6000610c8b82610c60565b9050919050565b610c9b81610c80565b8114610ca657600080fd5b50565b600081359050610cb881610c92565b92915050565b6000819050919050565b610cd181610cbe565b8114610cdc57600080fd5b50565b600081359050610cee81610cc8565b92915050565b60008060408385031215610d0b57610d0a610c5b565b5b6000610d1985828601610ca9565b9250506020610d2a85828601610cdf565b9150509250929050565b600060208284031215610d4a57610d49610c5b565b5b6000610d5884828501610ca9565b91505092915050565b60008115159050919050565b610d7681610d61565b82525050565b610d8581610cbe565b82525050565b6000604082019050610da06000830185610d6d565b610dad6020830184610d7c565b9392505050565b600060208284031215610dca57610dc9610c5b565b5b6000610dd884828501610cdf565b91505092915050565b610dea81610c80565b82525050565b6000602082019050610e056000830184610de1565b92915050565b6000602082019050610e206000830184610d7c565b92915050565b60008060408385031215610e3d57610e3c610c5b565b5b6000610e4b85828601610cdf565b9250506020610e5c85828601610ca9565b9150509250929050565b6000602082019050610e7b6000830184610d6d565b92915050565b600082825260208201905092915050565b7f4174746573746f7252656769737472793a20696e73756666696369656e74207360008201527f74616b6500000000000000000000000000000000000000000000000000000000602082015250565b6000610eee602483610e81565b9150610ef982610e92565b604082019050919050565b60006020820190508181036000830152610f1d81610ee1565b9050919050565b7f4e487b7100000000000000000000000000000000000000000000000000000000600052601160045260246000fd5b6000610f5e82610cbe565b9150610f6983610cbe565b9250828203905081811115610f8157610f80610f24565b5b92915050565b600081905092915050565b50565b6000610fa2600083610f87565b9150610fad82610f92565b600082019050919050565b6000610fc382610f95565b9150819050919050565b7f4174746573746f7252656769737472793a206661696c656420746f2073656e6460008201527f20736c61736865642066756e6473000000000000000000000000000000000000602082015250565b6000611029602e83610e81565b915061103482610fcd565b604082019050919050565b600060208201905081810360008301526110588161101c565b9050919050565b7f4174746573746f7252656769737472793a20616c72656164792072656769737460008201527f6572656400000000000000000000000000000000000000000000000000000000602082015250565b60006110bb602483610e81565b91506110c68261105f565b604082019050919050565b600060208201905081810360008301526110ea816110ae565b9050919050565b7f4174746573746f7252656769737472793a206e6f742072656769737465726564600082015250565b6000611127602083610e81565b9150611132826110f1565b602082019050919050565b600060208201905081810360008301526111568161111a565b9050919050565b7f4174746573746f7252656769737472793a206e6f207374616b65000000000000600082015250565b6000611193601a83610e81565b915061119e8261115d565b602082019050919050565b600060208201905081810360008301526111c281611186565b9050919050565b7f4174746573746f7252656769737472793a20616c72656164792061747465737460008201527f6564000000000000000000000000000000000000000000000000000000000000602082015250565b6000611225602283610e81565b9150611230826111c9565b604082019050919050565b6000602082019050818103600083015261125481611218565b9050919050565b600061126682610cbe565b915061127183610cbe565b925082820190508082111561128957611288610f24565b5b92915050565b7f4174746573746f7252656769737472793a206e6f2076616c75652073656e7400600082015250565b60006112c5601f83610e81565b91506112d08261128f565b602082019050919050565b600060208201905081810360008301526112f4816112b8565b905091905056fea2646970667358221220c49b173da341bc1e6b9770cbfcb883488b0aaaed0be39b2e4f76eb57f602057864736f6c63430008140033",
  "linkReferences": {},
  "deployedLinkReferences": {}
}