{
  "_format": "hh-sol-artifact-1",
  "contractName": "YieldVault",
  "sourceName": "contracts/YieldVault.sol",
  "abi": [
    {
      "inputs": [
        {
          "internalType": "address",
          "name": "_yieldProof",
          "type": "address"
        },
        {
          "internalType": "address",
          "name": "_attestorRegistry",
          "type": "address"
        },
        {
          "internalType": "uint256",
          "name": "_minTotalStake",
          "type": "uint256"
        }
      ],
      "stateMutability": "nonpayable",
      "type": "constructor"
    },
    {
      "anonymous": false,
      "inputs": [
        {
          "indexed": true,
          "internalType": "address",
          "name": "user",
          "type": "address"
        },
        {
          "indexed": false,
          "internalType": "uint256",
          "name": "amount",
          "type": "uint256"
        }
      ],
      "name": "Deposited",
      "type": "event"
    },
    {
      "anonymous": false,
      "inputs": [
        {
          "indexed": true,
          "internalType": "address",
          "name": "user",
          "type": "address"
        },
        {
          "indexed": false,
          "internalType": "uint256",
          "name": "amount",
          "type": "uint256"
        }
      ],
      "name": "Withdrawn",
      "type": "event"
    },
    {
      "anonymous": false,
      "inputs": [
        {
          "indexed": true,
          "internalType": "uint256",
          "name": "claimId",
          "type": "uint256"
        },
        {
          "indexed": false,
          "internalType": "uint256",
          "name": "totalStake",
          "type": "uint256"
        }
      ],
      "name": "YieldUnlocked",
      "type": "event"
    },
    {
      "inputs": [],
      "name": "attestorRegistry",
      "outputs": [
        {
          "internalType": "contract AttestorRegistry",
          "name": "",
          "type": "address"
        }
      ],
      "stateMutability": "view",
      "type": "function"
    },
    {
      "inputs": [
        {
          "internalType": "address",
          "name": "",
          "type": "address"
        }
      ],
      "name": "balances",
      "outputs": [
        {
          "internalType": "uint256",
          "name": "",
          "type": "uint256"
        }
      ],
      "stateMutability": "view",
      "type": "function"
    },
    {
      "inputs": [
        {
          "internalType": "uint256",
          "name": "claimId",
          "type": "uint256"
        }
      ],
      "name": "canUnlockYield",
      "outputs": [
        {
          "internalType": "bool",
          "name": "",
          "type": "bool"
        }
      ],
      "stateMutability": "view",
      "type": "function"
    },
    {
      "inputs": [],
      "name": "deposit",
      "outputs": [],
      "stateMutability": "payable",
      "type": "function"
    },
    {
      "inputs": [],
      "name": "minTotalStake",
      "outputs": [
        {
          "internalType": "uint256",
          "name": "",
          "type": "uint256"
        }
      ],
      "stateMutability": "view",
      "type": "function"
    },
    {
      "inputs": [],
      "name": "totalDeposits",
      "outputs": [
        {
          "internalType": "uint256",
          "name": "",
          "type": "uint256"
        }
      ],
      "stateMutability": "view",
      "type": "function"
    },
    {
      "inputs": [
        {
          "internalType": "uint256",
          "name": "claimId",
          "type": "uint256"
        }
      ],
      "name": "unlockYield",
      "outputs": [],
      "stateMutability": "nonpayable",
      "type": "function"
    },
    {
      "inputs": [
        {
          "internalType": "uint256",
          "name": "amount",
          "type": "uint256"
        }
      ],
      "name": "withdraw",
      "outputs": [],
      "stateMutability": "nonpayable",
      "type": "function"
    },
    {
      "inputs": [],
      "name": "yieldProof",
      "outputs": [
        {
          "internalType": "contract YieldProof",
          "name": "",
          "type": "address"
        }
      ],
      "stateMutability": "view",
      "type": "function"
    }
  ],
  "bytecode": "0x60806040523480156200001157600080fd5b5060405162000e5d38038062000e5d83398181016040528101906200003791906200016d565b826000806101000a81548173ffffffffffffffffffffffffffffffffffffffff021916908373ffffffffffffffffffffffffffffffffffffffff16021790555081600160006101000a81548173ffffffffffffffffffffffffffffffffffffffff021916908373ffffffffffffffffffffffffffffffffffffffff16021790555080600281905550505050620001c9565b600080fd5b600073ffffffffffffffffffffffffffffffffffffffff82169050919050565b6000620000fa82620000cd565b9050919050565b6200010c81620000ed565b81146200011857600080fd5b50565b6000815190506200012c8162000101565b92915050565b6000819050919050565b620001478162000132565b81146200015357600080fd5b50565b60008151905062000167816200013c565b92915050565b600080600060608486031215620001895762000188620000c8565b5b600062000199868287016200011b565b9350506020620001ac868287016200011b565b9250506040620001bf8682870162000156565b9150509250925092565b610c8480620001d96000396000f3fe6080604052600436106100865760003560e01c80635d281ec7116100595780635d281ec7146101455780637d88209714610170578063954d40d21461019b578063ba34be71146101c6578063d0e30db01461020357610086565b80631cec5e211461008b57806327e235e3146100b45780632e1a7d4d146100f15780633d5d6d201461011a575b600080fd5b34801561009757600080fd5b506100b260048036038101906100ad919061077a565b61020d565b005b3480156100c057600080fd5b506100db60048036038101906100d69190610805565b610331565b6040516100e89190610841565b60405180910390f35b3480156100fd57600080fd5b506101186004803603810190610113919061077a565b610349565b005b34801561012657600080fd5b5061012f610538565b60405161013c91906108bb565b60405180910390f35b34801561015157600080fd5b5061015a61055c565b6040516101679190610841565b60405180910390f35b34801561017c57600080fd5b50610185610562565b6040516101929190610841565b60405180910390f35b3480156101a757600080fd5b506101b0610568565b6040516101bd91906108f7565b60405180910390f35b3480156101d257600080fd5b506101ed60048036038101906101e8919061077a565b61058e565b6040516101fa919061092d565b60405180910390f35b61020b61063d565b005b6102168161058e565b610255576040517f08c379a000000000000000000000000000000000000000000000000000000000815260040161024c906109cb565b60405180910390fd5b6000600160009054906101000a900473ffffffffffffffffffffffffffffffffffffffff1673ffffffffffffffffffffffffffffffffffffffff1663aa73d25c836040518263ffffffff1660e01b81526004016102b29190610841565b602060405180830381865afa1580156102cf573d6000803e3d6000fd5b505050506040513d601f19601f820116820180604052508101906102f39190610a00565b9050817f84c0099000a838a82cc369f4541fa2e38045e0588040aed512d0c78b60632d0a826040516103259190610841565b60405180910390a25050565b60046020528060005260406000206000915090505481565b80600460003373ffffffffffffffffffffffffffffffffffffffff1673ffffffffffffffffffffffffffffffffffffffff1681526020019081526020016000205410156103cb576040517f08c379a00000000000000000000000000000000000000000000000000000000081526004016103c290610a79565b60405180910390fd5b80600460003373ffffffffffffffffffffffffffffffffffffffff1673ffffffffffffffffffffffffffffffffffffffff168152602001908152602001600020600082825461041a9190610ac8565b9250508190555080600360008282546104339190610ac8565b9250508190555060003373ffffffffffffffffffffffffffffffffffffffff168260405161046090610b2d565b60006040518083038185875af1925050503d806000811461049d576040519150601f19603f3d011682016040523d82523d6000602084013e6104a2565b606091505b50509050806104e6576040517f08c379a00000000000000000000000000000000000000000000000000000000081526004016104dd90610b8e565b60405180910390fd5b3373ffffffffffffffffffffffffffffffffffffffff167f7084f5476618d8e60b11ef0d7d3f06914655adb8793e28ff7f018d4c76d505d58360405161052c9190610841565b60405180910390a25050565b60008054906101000a900473ffffffffffffffffffffffffffffffffffffffff1681565b60025481565b60035481565b600160009054906101000a900473ffffffffffffffffffffffffffffffffffffffff1681565b600080600160009054906101000a900473ffffffffffffffffffffffffffffffffffffffff1673ffffffffffffffffffffffffffffffffffffffff1663aa73d25c846040518263ffffffff1660e01b81526004016105ec9190610841565b602060405180830381865afa158015610609573d6000803e3d6000fd5b505050506040513d601f19601f8201168201806040525081019061062d9190610a00565b9050600254811015915050919050565b60003411610680576040517f08c379a000000000000000000000000000000000000000000000000000000000815260040161067790610bfa565b60405180910390fd5b34600460003373ffffffffffffffffffffffffffffffffffffffff1673ffffffffffffffffffffffffffffffffffffffff16815260200190815260200160002060008282546106cf9190610c1a565b9250508190555034600360008282546106e89190610c1a565b925050819055503373ffffffffffffffffffffffffffffffffffffffff167f2da466a7b24304f47e87fa2e1e5a81b9831ce54fec19055ce277ca2f39ba42c4346040516107359190610841565b60405180910390a2565b600080fd5b6000819050919050565b61075781610744565b811461076257600080fd5b50565b6000813590506107748161074e565b92915050565b6000602082840312156107905761078f61073f565b5b600061079e84828501610765565b91505092915050565b600073ffffffffffffffffffffffffffffffffffffffff82169050919050565b60006107d2826107a7565b9050919050565b6107e2816107c7565b81146107ed57600080fd5b50565b6000813590506107ff816107d9565b92915050565b60006020828403121561081b5761081a61073f565b5b6000610829848285016107f0565b91505092915050565b61083b81610744565b82525050565b60006020820190506108566000830184610832565b92915050565b6000819050919050565b600061088161087c610877846107a7565b61085c565b6107a7565b9050919050565b600061089382610866565b9050919050565b60006108a582610888565b9050919050565b6108b58161089a565b82525050565b60006020820190506108d060008301846108ac565b92915050565b60006108e182610888565b9050919050565b6108f1816108d6565b82525050565b600060208201905061090c60008301846108e8565b92915050565b60008115159050919050565b61092781610912565b82525050565b6000602082019050610942600083018461091e565b92915050565b600082825260208201905092915050565b7f5969656c645661756c743a20696e73756666696369656e74207374616b65207460008201527f6f20756e6c6f636b000000000000000000000000000000000000000000000000602082015250565b60006109b5602883610948565b91506109c082610959565b604082019050919050565b600060208201905081810360008301526109e4816109a8565b9050919050565b6000815190506109fa8161074e565b92915050565b600060208284031215610a1657610a1561073f565b5b6000610a24848285016109eb565b91505092915050565b7f5969656c645661756c743a20696e73756666696369656e742062616c616e6365600082015250565b6000610a63602083610948565b9150610a6e82610a2d565b602082019050919050565b60006020820190508181036000830152610a9281610a56565b9050919050565b7f4e487b7100000000000000000000000000000000000000000000000000000000600052601160045260246000fd5b6000610ad382610744565b9150610ade83610744565b9250828203905081811115610af657610af5610a99565b5b92915050565b600081905092915050565b50565b6000610b17600083610afc565b9150610b2282610b07565b600082019050919050565b6000610b3882610b0a565b9150819050919050565b7f5969656c645661756c743a206661696c656420746f2073656e64204554480000600082015250565b6000610b78601e83610948565b9150610b8382610b42565b602082019050919050565b60006020820190508181036000830152610ba781610b6b565b9050919050565b7f5969656c645661756c743a2063616e6e6f74206465706f736974203000000000600082015250565b6000610be4601c83610948565b9150610bef82610bae565b602082019050919050565b60006020820190508181036000830152610c1381610bd7565b9050919050565b6000610c2582610744565b9150610c3083610744565b9250828201905080821115610c4857610c47610a99565b5b9291505056fea264697066735822122073475e7fdac8d1015e28b89e60ec63b108cc695ead6d0aa318b37faa51dce44464736f6c63430008140033",
  "linkReferences": {},
  "deployedLinkReferences": {}
}