{
  "_format": "hh-sol-artifact-1",
  "contractName": "YieldVault",
  "sourceName": "contracts/YieldVault.sol",
  "abi": [
    {
      "inputs": [
        {
          "internalType": "address",
          "name": "_yieldProof",
          "type": "address"
        },
        {
          "internalType": "address",
          "name": "_attestorRegistry",
          "type": "address"
        },
        {
          "internalType": "uint256",
          "name": "_minTotalStake",
          "type": "uint256"
        }
      ],
      "stateMutability": "nonpayable",
      "type": "constructor"
    },
    {
      "anonymous": false,
      "inputs": [
        {
          "indexed": true,
          "internalType": "address",
          "name": "user",
          "type": "address"
        },
        {
          "indexed": false,
          "internalType": "uint256",
          "name": "amount",
          "type": "uint256"
        }
      ],
      "name": "Deposited",
      "type": "event"
    },
    {
      "anonymous": false,
      "inputs": [
        {
          "indexed": true,
          "internalType": "address",
          "name": "user",
          "type": "address"
        },
        {
          "indexed": false,
          "internalType": "uint256",
          "name": "amount",
          "type": "uint256"
        }
      ],
      "name": "Withdrawn",
      "type": "event"
    },
    {
      "anonymous": false,
      "inputs": [
        {
          "indexed": true,
          "internalType": "address",
          "name": "user",
          "type": "address"
        },
        {
          "indexed": false,
          "internalType": "uint256",
          "name": "amount",
          "type": "uint256"
        },
        {
          "indexed": true,
          "internalType": "uint256",
          "name": "claimId",
          "type": "uint256"
        }
      ],
      "name": "YieldDistributed",
      "type": "event"
    },
    {
      "anonymous": false,
      "inputs": [
        {
          "indexed": true,
          "internalType": "uint256",
          "name": "claimId",
          "type": "uint256"
        },
        {
          "indexed": false,
          "internalType": "uint256",
          "name": "totalStake",
          "type": "uint256"
        }
      ],
      "name": "YieldUnlocked",
      "type": "event"
    },
    {
      "inputs": [],
      "name": "attestorRegistry",
      "outputs": [
        {
          "internalType": "contract AttestorRegistry",
          "name": "",
          "type": "address"
        }
      ],
      "stateMutability": "view",
      "type": "function"
    },
    {
      "inputs": [
        {
          "internalType": "address",
          "name": "",
          "type": "address"
        }
      ],
      "name": "balances",
      "outputs": [
        {
          "internalType": "uint256",
          "name": "",
          "type": "uint256"
        }
      ],
      "stateMutability": "view",
      "type": "function"
    },
    {
      "inputs": [
        {
          "internalType": "uint256",
          "name": "claimId",
          "type": "uint256"
        }
      ],
      "name": "canUnlockYield",
      "outputs": [
        {
          "internalType": "bool",
          "name": "",
          "type": "bool"
        }
      ],
      "stateMutability": "view",
      "type": "function"
    },
    {
      "inputs": [
        {
          "internalType": "uint256",
          "name": "claimId",
          "type": "uint256"
        }
      ],
      "name": "claimYieldShare",
      "outputs": [],
      "stateMutability": "nonpayable",
      "type": "function"
    },
    {
      "inputs": [],
      "name": "deposit",
      "outputs": [],
      "stateMutability": "payable",
      "type": "function"
    },
    {
      "inputs": [],
      "name": "getPendingDistributions",
      "outputs": [
        {
          "internalType": "uint256",
          "name": "pending",
          "type": "uint256"
        }
      ],
      "stateMutability": "view",
      "type": "function"
    },
    {
      "inputs": [
        {
          "internalType": "address",
          "name": "",
          "type": "address"
        },
        {
          "internalType": "uint256",
          "name": "",
          "type": "uint256"
        }
      ],
      "name": "hasClaimedYield",
      "outputs": [
        {
          "internalType": "bool",
          "name": "",
          "type": "bool"
        }
      ],
      "stateMutability": "view",
      "type": "function"
    },
    {
      "inputs": [
        {
          "internalType": "uint256",
          "name": "",
          "type": "uint256"
        }
      ],
      "name": "isClaimed",
      "outputs": [
        {
          "internalType": "bool",
          "name": "",
          "type": "bool"
        }
      ],
      "stateMutability": "view",
      "type": "function"
    },
    {
      "inputs": [],
      "name": "minTotalStake",
      "outputs": [
        {
          "internalType": "uint256",
          "name": "",
          "type": "uint256"
        }
      ],
      "stateMutability": "view",
      "type": "function"
    },
    {
      "inputs": [],
      "name": "totalDeposits",
      "outputs": [
        {
          "internalType": "uint256",
          "name": "",
          "type": "uint256"
        }
      ],
      "stateMutability": "view",
      "type": "function"
    },
    {
      "inputs": [
        {
          "internalType": "uint256",
          "name": "claimId",
          "type": "uint256"
        }
      ],
      "name": "unlockYield",
      "outputs": [],
      "stateMutability": "nonpayable",
      "type": "function"
    },
    {
      "inputs": [],
      "name": "verifiedDistribution",
      "outputs": [
        {
          "internalType": "uint256",
          "name": "",
          "type": "uint256"
        }
      ],
      "stateMutability": "view",
      "type": "function"
    },
    {
      "inputs": [
        {
          "internalType": "uint256",
          "name": "amount",
          "type": "uint256"
        }
      ],
      "name": "withdraw",
      "outputs": [],
      "stateMutability": "nonpayable",
      "type": "function"
    },
    {
      "inputs": [],
      "name": "yieldProof",
      "outputs": [
        {
          "internalType": "contract YieldProof",
          "name": "",
          "type": "address"
        }
      ],
      "stateMutability": "view",
      "type": "function"
    }
  ],
  "bytecode": "0x60806040523480156200001157600080fd5b5060405162001fc938038062001fc983398181016040528101906200003791906200016d565b826000806101000a81548173ffffffffffffffffffffffffffffffffffffffff021916908373ffffffffffffffffffffffffffffffffffffffff16021790555081600160006101000a81548173ffffffffffffffffffffffffffffffffffffffff021916908373ffffffffffffffffffffffffffffffffffffffff16021790555080600281905550505050620001c9565b600080fd5b600073ffffffffffffffffffffffffffffffffffffffff82169050919050565b6000620000fa82620000cd565b9050919050565b6200010c81620000ed565b81146200011857600080fd5b50565b6000815190506200012c8162000101565b92915050565b6000819050919050565b620001478162000132565b81146200015357600080fd5b50565b60008151905062000167816200013c565b92915050565b600080600060608486031215620001895762000188620000c8565b5b600062000199868287016200011b565b9350506020620001ac868287016200011b565b9250506040620001bf8682870162000156565b9150509250925092565b611df080620001d96000396000f3fe6080604052600436106100dd5760003560e01c80637d8820971161007f5780639e34070f116100595780639e34070f1461029c578063ba34be71146102d9578063d0e30db014610316578063fa14736d14610320576100dd565b80637d8820971461021b5780637f40986314610246578063954d40d214610271576100dd565b80633d5d6d20116100bb5780633d5d6d2014610171578063539acfe11461019c5780635d281ec7146101c55780636bde5f0d146101f0576100dd565b80631cec5e21146100e257806327e235e31461010b5780632e1a7d4d14610148575b600080fd5b3480156100ee57600080fd5b506101096004803603810190610104919061120a565b61035d565b005b34801561011757600080fd5b50610132600480360381019061012d9190611295565b61076f565b60405161013f91906112d1565b60405180910390f35b34801561015457600080fd5b5061016f600480360381019061016a919061120a565b610787565b005b34801561017d57600080fd5b50610186610976565b604051610193919061134b565b60405180910390f35b3480156101a857600080fd5b506101c360048036038101906101be919061120a565b61099a565b005b3480156101d157600080fd5b506101da610d34565b6040516101e791906112d1565b60405180910390f35b3480156101fc57600080fd5b50610205610d3a565b60405161021291906112d1565b60405180910390f35b34801561022757600080fd5b50610230610ee4565b60405161023d91906112d1565b60405180910390f35b34801561025257600080fd5b5061025b610eea565b60405161026891906112d1565b60405180910390f35b34801561027d57600080fd5b50610286610ef0565b6040516102939190611387565b60405180910390f35b3480156102a857600080fd5b506102c360048036038101906102be919061120a565b610f16565b6040516102d091906113bd565b60405180910390f35b3480156102e557600080fd5b5061030060048036038101906102fb919061120a565b610f36565b60405161030d91906113bd565b60405180910390f35b61031e61108f565b005b34801561032c57600080fd5b50610347600480360381019061034291906113d8565b611191565b60405161035491906113bd565b60405180910390f35b6005600082815260200190815260200160002060009054906101000a900460ff16156103be576040517f08c379a00000000000000000000000000000000000000000000000000000000081526004016103b59061149b565b60405180910390fd5b6103c781610f36565b610406576040517f08c379a00000000000000000000000000000000000000000000000000000000081526004016103fd9061152d565b60405180910390fd5b60016005600083815260200190815260200160002060006101000a81548160ff02191690831515021790555060008060009054906101000a900473ffffffffffffffffffffffffffffffffffffffff1673ffffffffffffffffffffffffffffffffffffffff1663a888c2cd836040518263ffffffff1660e01b815260040161048e91906112d1565b600060405180830381865afa1580156104ab573d6000803e3d6000fd5b505050506040513d6000823e3d601f19601f820116820180604052508101906104d491906116fd565b50505050935050505080471015610520576040517f08c379a000000000000000000000000000000000000000000000000000000000815260040161051790611879565b60405180910390fd5b806007600082825461053291906118c8565b92505081905550600060035411801561058a57506000600460003373ffffffffffffffffffffffffffffffffffffffff1673ffffffffffffffffffffffffffffffffffffffff16815260200190815260200160002054115b1561069257600060035482600460003373ffffffffffffffffffffffffffffffffffffffff1673ffffffffffffffffffffffffffffffffffffffff168152602001908152602001600020546105df91906118fc565b6105e9919061196d565b905080600460003373ffffffffffffffffffffffffffffffffffffffff1673ffffffffffffffffffffffffffffffffffffffff168152602001908152602001600020600082825461063a91906118c8565b92505081905550823373ffffffffffffffffffffffffffffffffffffffff167feb7e0363c2ab135c59a60c2c11ff34cf51eb456ec3b0b41852c4c4fd22116b4a8360405161068891906112d1565b60405180910390a3505b6000600160009054906101000a900473ffffffffffffffffffffffffffffffffffffffff1673ffffffffffffffffffffffffffffffffffffffff1663aa73d25c846040518263ffffffff1660e01b81526004016106ef91906112d1565b602060405180830381865afa15801561070c573d6000803e3d6000fd5b505050506040513d601f19601f82011682018060405250810190610730919061199e565b9050827f84c0099000a838a82cc369f4541fa2e38045e0588040aed512d0c78b60632d0a8260405161076291906112d1565b60405180910390a2505050565b60046020528060005260406000206000915090505481565b80600460003373ffffffffffffffffffffffffffffffffffffffff1673ffffffffffffffffffffffffffffffffffffffff168152602001908152602001600020541015610809576040517f08c379a000000000000000000000000000000000000000000000000000000000815260040161080090611a17565b60405180910390fd5b80600460003373ffffffffffffffffffffffffffffffffffffffff1673ffffffffffffffffffffffffffffffffffffffff16815260200190815260200160002060008282546108589190611a37565b9250508190555080600360008282546108719190611a37565b9250508190555060003373ffffffffffffffffffffffffffffffffffffffff168260405161089e90611a9c565b60006040518083038185875af1925050503d80600081146108db576040519150601f19603f3d011682016040523d82523d6000602084013e6108e0565b606091505b5050905080610924576040517f08c379a000000000000000000000000000000000000000000000000000000000815260040161091b90611afd565b60405180910390fd5b3373ffffffffffffffffffffffffffffffffffffffff167f7084f5476618d8e60b11ef0d7d3f06914655adb8793e28ff7f018d4c76d505d58360405161096a91906112d1565b60405180910390a25050565b60008054906101000a900473ffffffffffffffffffffffffffffffffffffffff1681565b6005600082815260200190815260200160002060009054906101000a900460ff166109fa576040517f08c379a00000000000000000000000000000000000000000000000000000000081526004016109f190611b8f565b60405180910390fd5b6000600460003373ffffffffffffffffffffffffffffffffffffffff1673ffffffffffffffffffffffffffffffffffffffff1681526020019081526020016000205411610a7c576040517f08c379a0000000000000000000000000000000000000000000000000000000008152600401610a7390611bfb565b60405180910390fd5b600660003373ffffffffffffffffffffffffffffffffffffffff1673ffffffffffffffffffffffffffffffffffffffff168152602001908152602001600020600082815260200190815260200160002060009054906101000a900460ff1615610b1a576040517f08c379a0000000000000000000000000000000000000000000000000000000008152600401610b1190611c8d565b60405180910390fd5b6001600660003373ffffffffffffffffffffffffffffffffffffffff1673ffffffffffffffffffffffffffffffffffffffff168152602001908152602001600020600083815260200190815260200160002060006101000a81548160ff02191690831515021790555060008060009054906101000a900473ffffffffffffffffffffffffffffffffffffffff1673ffffffffffffffffffffffffffffffffffffffff1663a888c2cd836040518263ffffffff1660e01b8152600401610bdf91906112d1565b600060405180830381865afa158015610bfc573d6000803e3d6000fd5b505050506040513d6000823e3d601f19601f82011682018060405250810190610c2591906116fd565b505050509350505050600060035482600460003373ffffffffffffffffffffffffffffffffffffffff1673ffffffffffffffffffffffffffffffffffffffff16815260200190815260200160002054610c7e91906118fc565b610c88919061196d565b905080600460003373ffffffffffffffffffffffffffffffffffffffff1673ffffffffffffffffffffffffffffffffffffffff1681526020019081526020016000206000828254610cd991906118c8565b92505081905550823373ffffffffffffffffffffffffffffffffffffffff167feb7e0363c2ab135c59a60c2c11ff34cf51eb456ec3b0b41852c4c4fd22116b4a83604051610d2791906112d1565b60405180910390a3505050565b60025481565b60008060008054906101000a900473ffffffffffffffffffffffffffffffffffffffff1673ffffffffffffffffffffffffffffffffffffffff166316daa23b6040518163ffffffff1660e01b8152600401602060405180830381865afa158015610da8573d6000803e3d6000fd5b505050506040513d601f19601f82011682018060405250810190610dcc919061199e565b905060005b81811015610edf576005600082815260200190815260200160002060009054906101000a900460ff16158015610e0c5750610e0b81610f36565b5b15610ecc5760008060009054906101000a900473ffffffffffffffffffffffffffffffffffffffff1673ffffffffffffffffffffffffffffffffffffffff1663a888c2cd836040518263ffffffff1660e01b8152600401610e6d91906112d1565b600060405180830381865afa158015610e8a573d6000803e3d6000fd5b505050506040513d6000823e3d601f19601f82011682018060405250810190610eb391906116fd565b5050505093505050508084610ec891906118c8565b9350505b8080610ed790611cad565b915050610dd1565b505090565b60035481565b60075481565b600160009054906101000a900473ffffffffffffffffffffffffffffffffffffffff1681565b60056020528060005260406000206000915054906101000a900460ff1681565b600080600160009054906101000a900473ffffffffffffffffffffffffffffffffffffffff1673ffffffffffffffffffffffffffffffffffffffff166344350417846040518263ffffffff1660e01b8152600401610f9491906112d1565b602060405180830381865afa158015610fb1573d6000803e3d6000fd5b505050506040513d601f19601f82011682018060405250810190610fd5919061199e565b90506000600390508082101580156110865750600160009054906101000a900473ffffffffffffffffffffffffffffffffffffffff1673ffffffffffffffffffffffffffffffffffffffff1663b70f402d856040518263ffffffff1660e01b815260040161104391906112d1565b602060405180830381865afa158015611060573d6000803e3d6000fd5b505050506040513d601f19601f820116820180604052508101906110849190611d21565b155b92505050919050565b600034116110d2576040517f08c379a00000000000000000000000000000000000000000000000000000000081526004016110c990611d9a565b60405180910390fd5b34600460003373ffffffffffffffffffffffffffffffffffffffff1673ffffffffffffffffffffffffffffffffffffffff168152602001908152602001600020600082825461112191906118c8565b92505081905550346003600082825461113a91906118c8565b925050819055503373ffffffffffffffffffffffffffffffffffffffff167f2da466a7b24304f47e87fa2e1e5a81b9831ce54fec19055ce277ca2f39ba42c43460405161118791906112d1565b60405180910390a2565b60066020528160005260406000206020528060005260406000206000915091509054906101000a900460ff1681565b6000604051905090565b600080fd5b600080fd5b6000819050919050565b6111e7816111d4565b81146111f257600080fd5b50565b600081359050611204816111de565b92915050565b6000602082840312156112205761121f6111ca565b5b600061122e848285016111f5565b91505092915050565b600073ffffffffffffffffffffffffffffffffffffffff82169050919050565b600061126282611237565b9050919050565b61127281611257565b811461127d57600080fd5b50565b60008135905061128f81611269565b92915050565b6000602082840312156112ab576112aa6111ca565b5b60006112b984828501611280565b91505092915050565b6112cb816111d4565b82525050565b60006020820190506112e660008301846112c2565b92915050565b6000819050919050565b600061131161130c61130784611237565b6112ec565b611237565b9050919050565b6000611323826112f6565b9050919050565b600061133582611318565b9050919050565b6113458161132a565b82525050565b6000602082019050611360600083018461133c565b92915050565b600061137182611318565b9050919050565b61138181611366565b82525050565b600060208201905061139c6000830184611378565b92915050565b60008115159050919050565b6113b7816113a2565b82525050565b60006020820190506113d260008301846113ae565b92915050565b600080604083850312156113ef576113ee6111ca565b5b60006113fd85828601611280565b925050602061140e858286016111f5565b9150509250929050565b600082825260208201905092915050565b7f5969656c645661756c743a20636c61696d20616c726561647920756e6c6f636b60008201527f6564000000000000000000000000000000000000000000000000000000000000602082015250565b6000611485602283611418565b915061149082611429565b604082019050919050565b600060208201905081810360008301526114b481611478565b9050919050565b7f5969656c645661756c743a20696e73756666696369656e74207374616b65207460008201527f6f20756e6c6f636b000000000000000000000000000000000000000000000000602082015250565b6000611517602883611418565b9150611522826114bb565b604082019050919050565b600060208201905081810360008301526115468161150a565b9050919050565b60008151905061155c816111de565b92915050565b600080fd5b600080fd5b6000601f19601f8301169050919050565b7f4e487b7100000000000000000000000000000000000000000000000000000000600052604160045260246000fd5b6115b58261156c565b810181811067ffffffffffffffff821117156115d4576115d361157d565b5b80604052505050565b60006115e76111c0565b90506115f382826115ac565b919050565b600067ffffffffffffffff8211156116135761161261157d565b5b61161c8261156c565b9050602081019050919050565b60005b8381101561164757808201518184015260208101905061162c565b60008484015250505050565b6000611666611661846115f8565b6115dd565b90508281526020810184848401111561168257611681611567565b5b61168d848285611629565b509392505050565b600082601f8301126116aa576116a9611562565b5b81516116ba848260208601611653565b91505092915050565b6000815190506116d281611269565b92915050565b600481106116e557600080fd5b50565b6000815190506116f7816116d8565b92915050565b600080600080600080600080610100898b03121561171e5761171d6111ca565b5b600061172c8b828c0161154d565b985050602089015167ffffffffffffffff81111561174d5761174c6111cf565b5b6117598b828c01611695565b975050604089015167ffffffffffffffff81111561177a576117796111cf565b5b6117868b828c01611695565b96505060606117978b828c0161154d565b955050608089015167ffffffffffffffff8111156117b8576117b76111cf565b5b6117c48b828c01611695565b94505060a06117d58b828c016116c3565b93505060c06117e68b828c016116e8565b92505060e06117f78b828c0161154d565b9150509295985092959890939650565b7f5969656c645661756c743a20696e73756666696369656e74207661756c74206260008201527f616c616e636520666f7220646973747269627574696f6e000000000000000000602082015250565b6000611863603783611418565b915061186e82611807565b604082019050919050565b6000602082019050818103600083015261189281611856565b9050919050565b7f4e487b7100000000000000000000000000000000000000000000000000000000600052601160045260246000fd5b60006118d3826111d4565b91506118de836111d4565b92508282019050808211156118f6576118f5611899565b5b92915050565b6000611907826111d4565b9150611912836111d4565b9250828202611920816111d4565b9150828204841483151761193757611936611899565b5b5092915050565b7f4e487b7100000000000000000000000000000000000000000000000000000000600052601260045260246000fd5b6000611978826111d4565b9150611983836111d4565b9250826119935761199261193e565b5b828204905092915050565b6000602082840312156119b4576119b36111ca565b5b60006119c28482850161154d565b91505092915050565b7f5969656c645661756c743a20696e73756666696369656e742062616c616e6365600082015250565b6000611a01602083611418565b9150611a0c826119cb565b602082019050919050565b60006020820190508181036000830152611a30816119f4565b9050919050565b6000611a42826111d4565b9150611a4d836111d4565b9250828203905081811115611a6557611a64611899565b5b92915050565b600081905092915050565b50565b6000611a86600083611a6b565b9150611a9182611a76565b600082019050919050565b6000611aa782611a79565b9150819050919050565b7f5969656c645661756c743a206661696c656420746f2073656e64204554480000600082015250565b6000611ae7601e83611418565b9150611af282611ab1565b602082019050919050565b60006020820190508181036000830152611b1681611ada565b9050919050565b7f5969656c645661756c743a20636c61696d206e6f742079657420756e6c6f636b60008201527f6564000000000000000000000000000000000000000000000000000000000000602082015250565b6000611b79602283611418565b9150611b8482611b1d565b604082019050919050565b60006020820190508181036000830152611ba881611b6c565b9050919050565b7f5969656c645661756c743a206e6f206465706f7369742062616c616e63650000600082015250565b6000611be5601e83611418565b9150611bf082611baf565b602082019050919050565b60006020820190508181036000830152611c1481611bd8565b9050919050565b7f5969656c645661756c743a20616c726561647920636c61696d6564207468697360008201527f207969656c640000000000000000000000000000000000000000000000000000602082015250565b6000611c77602683611418565b9150611c8282611c1b565b604082019050919050565b60006020820190508181036000830152611ca681611c6a565b9050919050565b6000611cb8826111d4565b91507fffffffffffffffffffffffffffffffffffffffffffffffffffffffffffffffff8203611cea57611ce9611899565b5b600182019050919050565b611cfe816113a2565b8114611d0957600080fd5b50565b600081519050611d1b81611cf5565b92915050565b600060208284031215611d3757611d366111ca565b5b6000611d4584828501611d0c565b91505092915050565b7f5969656c645661756c743a2063616e6e6f74206465706f736974203000000000600082015250565b6000611d84601c83611418565b9150611d8f82611d4e565b602082019050919050565b60006020820190508181036000830152611db381611d77565b905091905056fea2646970667358221220d5fd10abb82c7e5ede65903988b35a458c3726e6e7340af3add4caca7b0dc2e964736f6c63430008140033",
  "linkReferences": {},
  "deployedLinkReferences": {}
}