{
  "_format": "hh-sol-artifact-1",
  "contractName": "YieldProof",
  "sourceName": "contracts/YieldProof.sol",
  "abi": [
    {
      "inputs": [
        {
          "internalType": "address",
          "name": "_attestorRegistry",
          "type": "address"
        }
      ],
      "stateMutability": "nonpayable",
      "type": "constructor"
    },
    {
      "anonymous": false,
      "inputs": [
        {
          "indexed": true,
          "internalType": "uint256",
          "name": "claimId",
          "type": "uint256"
        },
        {
          "indexed": false,
          "internalType": "enum YieldProof.ClaimStatus",
          "name": "newStatus",
          "type": "uint8"
        },
        {
          "indexed": false,
          "internalType": "address",
          "name": "updatedBy",
          "type": "address"
        }
      ],
      "name": "ClaimStatusUpdated",
      "type": "event"
    },
    {
      "anonymous": false,
      "inputs": [
        {
          "indexed": true,
          "internalType": "uint256",
          "name": "claimId",
          "type": "uint256"
        },
        {
          "indexed": true,
          "internalType": "address",
          "name": "issuer",
          "type": "address"
        },
        {
          "indexed": false,
          "internalType": "string",
          "name": "assetId",
          "type": "string"
        },
        {
          "indexed": false,
          "internalType": "uint256",
          "name": "yieldAmount",
          "type": "uint256"
        }
      ],
      "name": "YieldClaimSubmitted",
      "type": "event"
    },
    {
      "inputs": [],
      "name": "admin",
      "outputs": [
        {
          "internalType": "address",
          "name": "",
          "type": "address"
        }
      ],
      "stateMutability": "view",
      "type": "function"
    },
    {
      "inputs": [],
      "name": "attestorRegistry",
      "outputs": [
        {
          "internalType": "contract AttestorRegistry",
          "name": "",
          "type": "address"
        }
      ],
      "stateMutability": "view",
      "type": "function"
    },
    {
      "inputs": [
        {
          "internalType": "uint256",
          "name": "",
          "type": "uint256"
        }
      ],
      "name": "claims",
      "outputs": [
        {
          "internalType": "uint256",
          "name": "claimId",
          "type": "uint256"
        },
        {
          "internalType": "string",
          "name": "assetId",
          "type": "string"
        },
        {
          "internalType": "string",
          "name": "period",
          "type": "string"
        },
        {
          "internalType": "uint256",
          "name": "yieldAmount",
          "type": "uint256"
        },
        {
          "internalType": "string",
          "name": "documentHash",
          "type": "string"
        },
        {
          "internalType": "address",
          "name": "issuer",
          "type": "address"
        },
        {
          "internalType": "enum YieldProof.ClaimStatus",
          "name": "status",
          "type": "uint8"
        }
      ],
      "stateMutability": "view",
      "type": "function"
    },
    {
      "inputs": [],
      "name": "getTotalClaims",
      "outputs": [
        {
          "internalType": "uint256",
          "name": "",
          "type": "uint256"
        }
      ],
      "stateMutability": "view",
      "type": "function"
    },
    {
      "inputs": [
        {
          "internalType": "string",
          "name": "_assetId",
          "type": "string"
        },
        {
          "internalType": "string",
          "name": "_period",
          "type": "string"
        },
        {
          "internalType": "uint256",
          "name": "_yieldAmount",
          "type": "uint256"
        },
        {
          "internalType": "string",
          "name": "_documentHash",
          "type": "string"
        }
      ],
      "name": "submitClaim",
      "outputs": [],
      "stateMutability": "nonpayable",
      "type": "function"
    },
    {
      "inputs": [
        {
          "internalType": "uint256",
          "name": "claimId",
          "type": "uint256"
        }
      ],
      "name": "updateClaimStatus",
      "outputs": [],
      "stateMutability": "nonpayable",
      "type": "function"
    },
    {
      "inputs": [
        {
          "internalType": "uint256",
          "name": "_claimId",
          "type": "uint256"
        },
        {
          "internalType": "enum YieldProof.ClaimStatus",
          "name": "_newStatus",
          "type": "uint8"
        }
      ],
      "name": "updateClaimStatus",
      "outputs": [],
      "stateMutability": "nonpayable",
      "type": "function"
    }
  ],
  "bytecode": "0x60806040523480156200001157600080fd5b506040516200161b3803806200161b83398181016040528101906200003791906200012a565b33600260006101000a81548173ffffffffffffffffffffffffffffffffffffffff021916908373ffffffffffffffffffffffffffffffffffffffff16021790555080600360006101000a81548173ffffffffffffffffffffffffffffffffffffffff021916908373ffffffffffffffffffffffffffffffffffffffff160217905550506200015c565b600080fd5b600073ffffffffffffffffffffffffffffffffffffffff82169050919050565b6000620000f282620000c5565b9050919050565b6200010481620000e5565b81146200011057600080fd5b50565b6000815190506200012481620000f9565b92915050565b600060208284031215620001435762000142620000c0565b5b6000620001538482850162000113565b91505092915050565b6114af806200016c6000396000f3fe608060405234801561001057600080fd5b506004361061007d5760003560e01c8063954d40d21161005b578063954d40d2146100d8578063a888c2cd146100f6578063ab1f5b7c1461012c578063f851a440146101485761007d565b806316daa23b1461008257806331fcbf59146100a057806375f3800a146100bc575b600080fd5b61008a610166565b6040516100979190610a4a565b60405180910390f35b6100ba60048036038101906100b59190610a9b565b61016f565b005b6100d660048036038101906100d19190610b2d565b6103a8565b005b6100e061062d565b6040516100ed9190610c75565b60405180910390f35b610110600480360381019061010b9190610a9b565b610653565b6040516101239796959493929190610db8565b60405180910390f35b61014660048036038101906101419190610e61565b61085a565b005b610150610a0b565b60405161015d9190610ea1565b60405180910390f35b60008054905090565b6000600160008381526020019081526020016000209050600073ffffffffffffffffffffffffffffffffffffffff168160050160009054906101000a900473ffffffffffffffffffffffffffffffffffffffff1673ffffffffffffffffffffffffffffffffffffffff1603610219576040517f08c379a000000000000000000000000000000000000000000000000000000000815260040161021090610f08565b60405180910390fd5b6000600381111561022d5761022c610d41565b5b8160050160149054906101000a900460ff16600381111561025157610250610d41565b5b14610291576040517f08c379a000000000000000000000000000000000000000000000000000000000815260040161028890610f74565b60405180910390fd5b6000600360009054906101000a900473ffffffffffffffffffffffffffffffffffffffff1673ffffffffffffffffffffffffffffffffffffffff1663aa73d25c846040518263ffffffff1660e01b81526004016102ee9190610a4a565b602060405180830381865afa15801561030b573d6000803e3d6000fd5b505050506040513d601f19601f8201168201806040525081019061032f9190610fa9565b905060008111156103a35760018260050160146101000a81548160ff0219169083600381111561036257610361610d41565b5b0217905550827f9ab147ddf13c21af338e8193b9127675caa5084cf537efba2656f596c6aa1e4660013360405161039a929190610fd6565b60405180910390a25b505050565b6000805490506000808154809291906103c09061102e565b91905055506040518060e0016040528082815260200189898080601f016020809104026020016040519081016040528093929190818152602001838380828437600081840152601f19601f82011690508083019250505050505050815260200187878080601f016020809104026020016040519081016040528093929190818152602001838380828437600081840152601f19601f82011690508083019250505050505050815260200185815260200184848080601f016020809104026020016040519081016040528093929190818152602001838380828437600081840152601f19601f8201169050808301925050505050505081526020013373ffffffffffffffffffffffffffffffffffffffff168152602001600060038111156104ea576104e9610d41565b5b8152506001600083815260200190815260200160002060008201518160000155602082015181600101908161051f91906112a7565b50604082015181600201908161053591906112a7565b5060608201518160030155608082015181600401908161055591906112a7565b5060a08201518160050160006101000a81548173ffffffffffffffffffffffffffffffffffffffff021916908373ffffffffffffffffffffffffffffffffffffffff16021790555060c08201518160050160146101000a81548160ff021916908360038111156105c8576105c7610d41565b5b02179055509050503373ffffffffffffffffffffffffffffffffffffffff16817fd69d9b88bd245beb70ba37a2a3c730e002fbaf3e4e3c19a4444aed9d9f3947558a8a8860405161061b939291906113b5565b60405180910390a35050505050505050565b600360009054906101000a900473ffffffffffffffffffffffffffffffffffffffff1681565b600160205280600052604060002060009150905080600001549080600101805461067c906110d4565b80601f01602080910402602001604051908101604052809291908181526020018280546106a8906110d4565b80156106f55780601f106106ca576101008083540402835291602001916106f5565b820191906000526020600020905b8154815290600101906020018083116106d857829003601f168201915b50505050509080600201805461070a906110d4565b80601f0160208091040260200160405190810160405280929190818152602001828054610736906110d4565b80156107835780601f1061075857610100808354040283529160200191610783565b820191906000526020600020905b81548152906001019060200180831161076657829003601f168201915b50505050509080600301549080600401805461079e906110d4565b80601f01602080910402602001604051908101604052809291908181526020018280546107ca906110d4565b80156108175780601f106107ec57610100808354040283529160200191610817565b820191906000526020600020905b8154815290600101906020018083116107fa57829003601f168201915b5050505050908060050160009054906101000a900473ffffffffffffffffffffffffffffffffffffffff16908060050160149054906101000a900460ff16905087565b600260009054906101000a900473ffffffffffffffffffffffffffffffffffffffff1673ffffffffffffffffffffffffffffffffffffffff163373ffffffffffffffffffffffffffffffffffffffff16146108ea576040517f08c379a00000000000000000000000000000000000000000000000000000000081526004016108e190611459565b60405180910390fd5b600073ffffffffffffffffffffffffffffffffffffffff166001600084815260200190815260200160002060050160009054906101000a900473ffffffffffffffffffffffffffffffffffffffff1673ffffffffffffffffffffffffffffffffffffffff160361098f576040517f08c379a000000000000000000000000000000000000000000000000000000000815260040161098690610f08565b60405180910390fd5b806001600084815260200190815260200160002060050160146101000a81548160ff021916908360038111156109c8576109c7610d41565b5b0217905550817f9ab147ddf13c21af338e8193b9127675caa5084cf537efba2656f596c6aa1e4682336040516109ff929190610fd6565b60405180910390a25050565b600260009054906101000a900473ffffffffffffffffffffffffffffffffffffffff1681565b6000819050919050565b610a4481610a31565b82525050565b6000602082019050610a5f6000830184610a3b565b92915050565b600080fd5b600080fd5b610a7881610a31565b8114610a8357600080fd5b50565b600081359050610a9581610a6f565b92915050565b600060208284031215610ab157610ab0610a65565b5b6000610abf84828501610a86565b91505092915050565b600080fd5b600080fd5b600080fd5b60008083601f840112610aed57610aec610ac8565b5b8235905067ffffffffffffffff811115610b0a57610b09610acd565b5b602083019150836001820283011115610b2657610b25610ad2565b5b9250929050565b60008060008060008060006080888a031215610b4c57610b4b610a65565b5b600088013567ffffffffffffffff811115610b6a57610b69610a6a565b5b610b768a828b01610ad7565b9750975050602088013567ffffffffffffffff811115610b9957610b98610a6a565b5b610ba58a828b01610ad7565b95509550506040610bb88a828b01610a86565b935050606088013567ffffffffffffffff811115610bd957610bd8610a6a565b5b610be58a828b01610ad7565b925092505092959891949750929550565b600073ffffffffffffffffffffffffffffffffffffffff82169050919050565b6000819050919050565b6000610c3b610c36610c3184610bf6565b610c16565b610bf6565b9050919050565b6000610c4d82610c20565b9050919050565b6000610c5f82610c42565b9050919050565b610c6f81610c54565b82525050565b6000602082019050610c8a6000830184610c66565b92915050565b600081519050919050565b600082825260208201905092915050565b60005b83811015610cca578082015181840152602081019050610caf565b60008484015250505050565b6000601f19601f8301169050919050565b6000610cf282610c90565b610cfc8185610c9b565b9350610d0c818560208601610cac565b610d1581610cd6565b840191505092915050565b6000610d2b82610bf6565b9050919050565b610d3b81610d20565b82525050565b7f4e487b7100000000000000000000000000000000000000000000000000000000600052602160045260246000fd5b60048110610d8157610d80610d41565b5b50565b6000819050610d9282610d70565b919050565b6000610da282610d84565b9050919050565b610db281610d97565b82525050565b600060e082019050610dcd600083018a610a3b565b8181036020830152610ddf8189610ce7565b90508181036040830152610df38188610ce7565b9050610e026060830187610a3b565b8181036080830152610e148186610ce7565b9050610e2360a0830185610d32565b610e3060c0830184610da9565b98975050505050505050565b60048110610e4957600080fd5b50565b600081359050610e5b81610e3c565b92915050565b60008060408385031215610e7857610e77610a65565b5b6000610e8685828601610a86565b9250506020610e9785828601610e4c565b9150509250929050565b6000602082019050610eb66000830184610d32565b92915050565b7f5969656c6450726f6f663a20636c61696d20646f6573206e6f74206578697374600082015250565b6000610ef2602083610c9b565b9150610efd82610ebc565b602082019050919050565b60006020820190508181036000830152610f2181610ee5565b9050919050565b7f5969656c6450726f6f663a20636c61696d206e6f742070656e64696e67000000600082015250565b6000610f5e601d83610c9b565b9150610f6982610f28565b602082019050919050565b60006020820190508181036000830152610f8d81610f51565b9050919050565b600081519050610fa381610a6f565b92915050565b600060208284031215610fbf57610fbe610a65565b5b6000610fcd84828501610f94565b91505092915050565b6000604082019050610feb6000830185610da9565b610ff86020830184610d32565b9392505050565b7f4e487b7100000000000000000000000000000000000000000000000000000000600052601160045260246000fd5b600061103982610a31565b91507fffffffffffffffffffffffffffffffffffffffffffffffffffffffffffffffff820361106b5761106a610fff565b5b600182019050919050565b7f4e487b7100000000000000000000000000000000000000000000000000000000600052604160045260246000fd5b7f4e487b7100000000000000000000000000000000000000000000000000000000600052602260045260246000fd5b600060028204905060018216806110ec57607f821691505b6020821081036110ff576110fe6110a5565b5b50919050565b60008190508160005260206000209050919050565b60006020601f8301049050919050565b600082821b905092915050565b6000600883026111677fffffffffffffffffffffffffffffffffffffffffffffffffffffffffffffffff8261112a565b611171868361112a565b95508019841693508086168417925050509392505050565b60006111a461119f61119a84610a31565b610c16565b610a31565b9050919050565b6000819050919050565b6111be83611189565b6111d26111ca826111ab565b848454611137565b825550505050565b600090565b6111e76111da565b6111f28184846111b5565b505050565b5b818110156112165761120b6000826111df565b6001810190506111f8565b5050565b601f82111561125b5761122c81611105565b6112358461111a565b81016020851015611244578190505b6112586112508561111a565b8301826111f7565b50505b505050565b600082821c905092915050565b600061127e60001984600802611260565b1980831691505092915050565b6000611297838361126d565b9150826002028217905092915050565b6112b082610c90565b67ffffffffffffffff8111156112c9576112c8611076565b5b6112d382546110d4565b6112de82828561121a565b600060209050601f83116001811461131157600084156112ff578287015190505b611309858261128b565b865550611371565b601f19841661131f86611105565b60005b8281101561134757848901518255600182019150602085019450602081019050611322565b868310156113645784890151611360601f89168261126d565b8355505b6001600288020188555050505b505050505050565b82818337600083830152505050565b60006113948385610c9b565b93506113a1838584611379565b6113aa83610cd6565b840190509392505050565b600060408201905081810360008301526113d0818587611388565b90506113df6020830184610a3b565b949350505050565b7f5969656c6450726f6f663a2063616c6c6572206973206e6f742074686520616460008201527f6d696e0000000000000000000000000000000000000000000000000000000000602082015250565b6000611443602383610c9b565b915061144e826113e7565b604082019050919050565b6000602082019050818103600083015261147281611436565b905091905056fea2646970667358221220c199a846e0de09fde4adee0d6d9f91a5f2b93cfaa1dd5a1c2e8a45a8e8fd6d7864736f6c63430008140033",
  "linkReferences": {},
  "deployedLinkReferences": {}
}