{
  "_format": "hh-sol-artifact-1",
  "contractName": "YieldProof",
  "sourceName": "contracts/YieldProof.sol",
  "abi": [
    {
      "inputs": [
        {
          "internalType": "address",
          "name": "_attestorRegistry",
          "type": "address"
        }
      ],
      "stateMutability": "nonpayable",
      "type": "constructor"
    },
    {
      "anonymous": false,
      "inputs": [
        {
          "indexed": true,
          "internalType": "uint256",
          "name": "claimId",
          "type": "uint256"
        },
        {
          "indexed": false,
          "internalType": "enum YieldProof.ClaimStatus",
          "name": "newStatus",
          "type": "uint8"
        },
        {
          "indexed": false,
          "internalType": "address",
          "name": "updatedBy",
          "type": "address"
        }
      ],
      "name": "ClaimStatusUpdated",
      "type": "event"
    },
    {
      "anonymous": false,
      "inputs": [
        {
          "indexed": true,
          "internalType": "uint256",
          "name": "claimId",
          "type": "uint256"
        },
        {
          "indexed": true,
          "internalType": "address",
          "name": "issuer",
          "type": "address"
        },
        {
          "indexed": false,
          "internalType": "string",
          "name": "assetId",
          "type": "string"
        },
        {
          "indexed": false,
          "internalType": "uint256",
          "name": "yieldAmount",
          "type": "uint256"
        },
        {
          "indexed": false,
          "internalType": "uint256",
          "name": "submittedAt",
          "type": "uint256"
        }
      ],
      "name": "YieldClaimSubmitted",
      "type": "event"
    },
    {
      "inputs": [],
      "name": "MIN_REQUIRED_ATTESTORS",
      "outputs": [
        {
          "internalType": "uint256",
          "name": "",
          "type": "uint256"
        }
      ],
      "stateMutability": "view",
      "type": "function"
    },
    {
      "inputs": [],
      "name": "admin",
      "outputs": [
        {
          "internalType": "address",
          "name": "",
          "type": "address"
        }
      ],
      "stateMutability": "view",
      "type": "function"
    },
    {
      "inputs": [],
      "name": "attestorRegistry",
      "outputs": [
        {
          "internalType": "contract AttestorRegistry",
          "name": "",
          "type": "address"
        }
      ],
      "stateMutability": "view",
      "type": "function"
    },
    {
      "inputs": [
        {
          "internalType": "uint256",
          "name": "",
          "type": "uint256"
        }
      ],
      "name": "claims",
      "outputs": [
        {
          "internalType": "uint256",
          "name": "claimId",
          "type": "uint256"
        },
        {
          "internalType": "string",
          "name": "assetId",
          "type": "string"
        },
        {
          "internalType": "string",
          "name": "period",
          "type": "string"
        },
        {
          "internalType": "uint256",
          "name": "yieldAmount",
          "type": "uint256"
        },
        {
          "internalType": "string",
          "name": "documentHash",
          "type": "string"
        },
        {
          "internalType": "address",
          "name": "issuer",
          "type": "address"
        },
        {
          "internalType": "enum YieldProof.ClaimStatus",
          "name": "status",
          "type": "uint8"
        },
        {
          "internalType": "uint256",
          "name": "submittedAt",
          "type": "uint256"
        }
      ],
      "stateMutability": "view",
      "type": "function"
    },
    {
      "inputs": [],
      "name": "getRequiredAttestationFee",
      "outputs": [
        {
          "internalType": "uint256",
          "name": "",
          "type": "uint256"
        }
      ],
      "stateMutability": "view",
      "type": "function"
    },
    {
      "inputs": [],
      "name": "getTotalClaims",
      "outputs": [
        {
          "internalType": "uint256",
          "name": "",
          "type": "uint256"
        }
      ],
      "stateMutability": "view",
      "type": "function"
    },
    {
      "inputs": [
        {
          "internalType": "string",
          "name": "_assetId",
          "type": "string"
        },
        {
          "internalType": "string",
          "name": "_period",
          "type": "string"
        },
        {
          "internalType": "uint256",
          "name": "_yieldAmount",
          "type": "uint256"
        },
        {
          "internalType": "string",
          "name": "_documentHash",
          "type": "string"
        }
      ],
      "name": "submitClaim",
      "outputs": [],
      "stateMutability": "payable",
      "type": "function"
    },
    {
      "inputs": [
        {
          "internalType": "uint256",
          "name": "claimId",
          "type": "uint256"
        }
      ],
      "name": "updateClaimStatus",
      "outputs": [],
      "stateMutability": "nonpayable",
      "type": "function"
    },
    {
      "inputs": [
        {
          "internalType": "uint256",
          "name": "_claimId",
          "type": "uint256"
        },
        {
          "internalType": "enum YieldProof.ClaimStatus",
          "name": "_newStatus",
          "type": "uint8"
        }
      ],
      "name": "updateClaimStatus",
      "outputs": [],
      "stateMutability": "nonpayable",
      "type": "function"
    }
  ],
  "bytecode": "0x60806040523480156200001157600080fd5b5060405162001b4a38038062001b4a83398181016040528101906200003791906200012a565b33600260006101000a81548173ffffffffffffffffffffffffffffffffffffffff021916908373ffffffffffffffffffffffffffffffffffffffff16021790555080600360006101000a81548173ffffffffffffffffffffffffffffffffffffffff021916908373ffffffffffffffffffffffffffffffffffffffff160217905550506200015c565b600080fd5b600073ffffffffffffffffffffffffffffffffffffffff82169050919050565b6000620000f282620000c5565b9050919050565b6200010481620000e5565b81146200011057600080fd5b50565b6000815190506200012481620000f9565b92915050565b600060208284031215620001435762000142620000c0565b5b6000620001538482850162000113565b91505092915050565b6119de806200016c6000396000f3fe6080604052600436106100865760003560e01c8063a888c2cd11610059578063a888c2cd14610126578063ab1f5b7c1461016a578063e7e3ccb314610193578063edd6fd31146101be578063f851a440146101e957610086565b806316daa23b1461008b57806331fcbf59146100b657806375f3800a146100df578063954d40d2146100fb575b600080fd5b34801561009757600080fd5b506100a0610214565b6040516100ad9190610dda565b60405180910390f35b3480156100c257600080fd5b506100dd60048036038101906100d89190610e2b565b61021d565b005b6100f960048036038101906100f49190610ebd565b610456565b005b34801561010757600080fd5b5061011061091a565b60405161011d9190611005565b60405180910390f35b34801561013257600080fd5b5061014d60048036038101906101489190610e2b565b610940565b604051610161989796959493929190611148565b60405180910390f35b34801561017657600080fd5b50610191600480360381019061018c9190611200565b610b4d565b005b34801561019f57600080fd5b506101a8610cfe565b6040516101b59190610dda565b60405180910390f35b3480156101ca57600080fd5b506101d3610d03565b6040516101e09190610dda565b60405180910390f35b3480156101f557600080fd5b506101fe610d9b565b60405161020b9190611240565b60405180910390f35b60008054905090565b6000600160008381526020019081526020016000209050600073ffffffffffffffffffffffffffffffffffffffff168160050160009054906101000a900473ffffffffffffffffffffffffffffffffffffffff1673ffffffffffffffffffffffffffffffffffffffff16036102c7576040517f08c379a00000000000000000000000000000000000000000000000000000000081526004016102be906112a7565b60405180910390fd5b600060038111156102db576102da6110d1565b5b8160050160149054906101000a900460ff1660038111156102ff576102fe6110d1565b5b1461033f576040517f08c379a000000000000000000000000000000000000000000000000000000000815260040161033690611313565b60405180910390fd5b6000600360009054906101000a900473ffffffffffffffffffffffffffffffffffffffff1673ffffffffffffffffffffffffffffffffffffffff1663aa73d25c846040518263ffffffff1660e01b815260040161039c9190610dda565b602060405180830381865afa1580156103b9573d6000803e3d6000fd5b505050506040513d601f19601f820116820180604052508101906103dd9190611348565b905060008111156104515760018260050160146101000a81548160ff021916908360038111156104105761040f6110d1565b5b0217905550827f9ab147ddf13c21af338e8193b9127675caa5084cf537efba2656f596c6aa1e46600133604051610448929190611375565b60405180910390a25b505050565b6000600360009054906101000a900473ffffffffffffffffffffffffffffffffffffffff1673ffffffffffffffffffffffffffffffffffffffff1663dcb6eed36040518163ffffffff1660e01b8152600401602060405180830381865afa1580156104c5573d6000803e3d6000fd5b505050506040513d601f19601f820116820180604052508101906104e99190611348565b90508034101561052e576040517f08c379a000000000000000000000000000000000000000000000000000000000815260040161052590611410565b60405180910390fd5b6000805490506000808154809291906105469061145f565b91905055506040518061010001604052808281526020018a8a8080601f016020809104026020016040519081016040528093929190818152602001838380828437600081840152601f19601f82011690508083019250505050505050815260200188888080601f016020809104026020016040519081016040528093929190818152602001838380828437600081840152601f19601f82011690508083019250505050505050815260200186815260200185858080601f016020809104026020016040519081016040528093929190818152602001838380828437600081840152601f19601f8201169050808301925050505050505081526020013373ffffffffffffffffffffffffffffffffffffffff16815260200160006003811115610671576106706110d1565b5b815260200142815250600160008381526020019081526020016000206000820151816000015560208201518160010190816106ac91906116d8565b5060408201518160020190816106c291906116d8565b506060820151816003015560808201518160040190816106e291906116d8565b5060a08201518160050160006101000a81548173ffffffffffffffffffffffffffffffffffffffff021916908373ffffffffffffffffffffffffffffffffffffffff16021790555060c08201518160050160146101000a81548160ff02191690836003811115610755576107546110d1565b5b021790555060e082015181600601559050506000600360009054906101000a900473ffffffffffffffffffffffffffffffffffffffff1673ffffffffffffffffffffffffffffffffffffffff16346040516024016040516020818303038152906040527f88e38c0d000000000000000000000000000000000000000000000000000000007bffffffffffffffffffffffffffffffffffffffffffffffffffffffff19166020820180517bffffffffffffffffffffffffffffffffffffffffffffffffffffffff838183161783525050505060405161083391906117f1565b60006040518083038185875af1925050503d8060008114610870576040519150601f19603f3d011682016040523d82523d6000602084013e610875565b606091505b50509050806108b9576040517f08c379a00000000000000000000000000000000000000000000000000000000081526004016108b09061187a565b60405180910390fd5b3373ffffffffffffffffffffffffffffffffffffffff16827f3c222253410814e86d518ca9b8be85473384748ad87da8f3cbf4196f8fadf8d88c8c8a4260405161090694939291906118d6565b60405180910390a350505050505050505050565b600360009054906101000a900473ffffffffffffffffffffffffffffffffffffffff1681565b600160205280600052604060002060009150905080600001549080600101805461096990611505565b80601f016020809104026020016040519081016040528092919081815260200182805461099590611505565b80156109e25780601f106109b7576101008083540402835291602001916109e2565b820191906000526020600020905b8154815290600101906020018083116109c557829003601f168201915b5050505050908060020180546109f790611505565b80601f0160208091040260200160405190810160405280929190818152602001828054610a2390611505565b8015610a705780601f10610a4557610100808354040283529160200191610a70565b820191906000526020600020905b815481529060010190602001808311610a5357829003601f168201915b505050505090806003015490806004018054610a8b90611505565b80601f0160208091040260200160405190810160405280929190818152602001828054610ab790611505565b8015610b045780601f10610ad957610100808354040283529160200191610b04565b820191906000526020600020905b815481529060010190602001808311610ae757829003601f168201915b5050505050908060050160009054906101000a900473ffffffffffffffffffffffffffffffffffffffff16908060050160149054906101000a900460ff16908060060154905088565b600260009054906101000a900473ffffffffffffffffffffffffffffffffffffffff1673ffffffffffffffffffffffffffffffffffffffff163373ffffffffffffffffffffffffffffffffffffffff1614610bdd576040517f08c379a0000000000000000000000000000000000000000000000000000000008152600401610bd490611988565b60405180910390fd5b600073ffffffffffffffffffffffffffffffffffffffff166001600084815260200190815260200160002060050160009054906101000a900473ffffffffffffffffffffffffffffffffffffffff1673ffffffffffffffffffffffffffffffffffffffff1603610c82576040517f08c379a0000000000000000000000000000000000000000000000000000000008152600401610c79906112a7565b60405180910390fd5b806001600084815260200190815260200160002060050160146101000a81548160ff02191690836003811115610cbb57610cba6110d1565b5b0217905550817f9ab147ddf13c21af338e8193b9127675caa5084cf537efba2656f596c6aa1e468233604051610cf2929190611375565b60405180910390a25050565b600381565b6000600360009054906101000a900473ffffffffffffffffffffffffffffffffffffffff1673ffffffffffffffffffffffffffffffffffffffff1663dcb6eed36040518163ffffffff1660e01b8152600401602060405180830381865afa158015610d72573d6000803e3d6000fd5b505050506040513d601f19601f82011682018060405250810190610d969190611348565b905090565b600260009054906101000a900473ffffffffffffffffffffffffffffffffffffffff1681565b6000819050919050565b610dd481610dc1565b82525050565b6000602082019050610def6000830184610dcb565b92915050565b600080fd5b600080fd5b610e0881610dc1565b8114610e1357600080fd5b50565b600081359050610e2581610dff565b92915050565b600060208284031215610e4157610e40610df5565b5b6000610e4f84828501610e16565b91505092915050565b600080fd5b600080fd5b600080fd5b60008083601f840112610e7d57610e7c610e58565b5b8235905067ffffffffffffffff811115610e9a57610e99610e5d565b5b602083019150836001820283011115610eb657610eb5610e62565b5b9250929050565b60008060008060008060006080888a031215610edc57610edb610df5565b5b600088013567ffffffffffffffff811115610efa57610ef9610dfa565b5b610f068a828b01610e67565b9750975050602088013567ffffffffffffffff811115610f2957610f28610dfa565b5b610f358a828b01610e67565b95509550506040610f488a828b01610e16565b935050606088013567ffffffffffffffff811115610f6957610f68610dfa565b5b610f758a828b01610e67565b925092505092959891949750929550565b600073ffffffffffffffffffffffffffffffffffffffff82169050919050565b6000819050919050565b6000610fcb610fc6610fc184610f86565b610fa6565b610f86565b9050919050565b6000610fdd82610fb0565b9050919050565b6000610fef82610fd2565b9050919050565b610fff81610fe4565b82525050565b600060208201905061101a6000830184610ff6565b92915050565b600081519050919050565b600082825260208201905092915050565b60005b8381101561105a57808201518184015260208101905061103f565b60008484015250505050565b6000601f19601f8301169050919050565b600061108282611020565b61108c818561102b565b935061109c81856020860161103c565b6110a581611066565b840191505092915050565b60006110bb82610f86565b9050919050565b6110cb816110b0565b82525050565b7f4e487b7100000000000000000000000000000000000000000000000000000000600052602160045260246000fd5b60048110611111576111106110d1565b5b50565b600081905061112282611100565b919050565b600061113282611114565b9050919050565b61114281611127565b82525050565b60006101008201905061115e600083018b610dcb565b8181036020830152611170818a611077565b905081810360408301526111848189611077565b90506111936060830188610dcb565b81810360808301526111a58187611077565b90506111b460a08301866110c2565b6111c160c0830185611139565b6111ce60e0830184610dcb565b9998505050505050505050565b600481106111e857600080fd5b50565b6000813590506111fa816111db565b92915050565b6000806040838503121561121757611216610df5565b5b600061122585828601610e16565b9250506020611236858286016111eb565b9150509250929050565b600060208201905061125560008301846110c2565b92915050565b7f5969656c6450726f6f663a20636c61696d20646f6573206e6f74206578697374600082015250565b600061129160208361102b565b915061129c8261125b565b602082019050919050565b600060208201905081810360008301526112c081611284565b9050919050565b7f5969656c6450726f6f663a20636c61696d206e6f742070656e64696e67000000600082015250565b60006112fd601d8361102b565b9150611308826112c7565b602082019050919050565b6000602082019050818103600083015261132c816112f0565b9050919050565b60008151905061134281610dff565b92915050565b60006020828403121561135e5761135d610df5565b5b600061136c84828501611333565b91505092915050565b600060408201905061138a6000830185611139565b61139760208301846110c2565b9392505050565b7f5969656c6450726f6f663a20696e73756666696369656e74206174746573746160008201527f74696f6e20666565000000000000000000000000000000000000000000000000602082015250565b60006113fa60288361102b565b91506114058261139e565b604082019050919050565b60006020820190508181036000830152611429816113ed565b9050919050565b7f4e487b7100000000000000000000000000000000000000000000000000000000600052601160045260246000fd5b600061146a82610dc1565b91507fffffffffffffffffffffffffffffffffffffffffffffffffffffffffffffffff820361149c5761149b611430565b5b600182019050919050565b7f4e487b7100000000000000000000000000000000000000000000000000000000600052604160045260246000fd5b7f4e487b7100000000000000000000000000000000000000000000000000000000600052602260045260246000fd5b6000600282049050600182168061151d57607f821691505b6020821081036115305761152f6114d6565b5b50919050565b60008190508160005260206000209050919050565b60006020601f8301049050919050565b600082821b905092915050565b6000600883026115987fffffffffffffffffffffffffffffffffffffffffffffffffffffffffffffffff8261155b565b6115a2868361155b565b95508019841693508086168417925050509392505050565b60006115d56115d06115cb84610dc1565b610fa6565b610dc1565b9050919050565b6000819050919050565b6115ef836115ba565b6116036115fb826115dc565b848454611568565b825550505050565b600090565b61161861160b565b6116238184846115e6565b505050565b5b818110156116475761163c600082611610565b600181019050611629565b5050565b601f82111561168c5761165d81611536565b6116668461154b565b81016020851015611675578190505b6116896116818561154b565b830182611628565b50505b505050565b600082821c905092915050565b60006116af60001984600802611691565b1980831691505092915050565b60006116c8838361169e565b9150826002028217905092915050565b6116e182611020565b67ffffffffffffffff8111156116fa576116f96114a7565b5b6117048254611505565b61170f82828561164b565b600060209050601f8311600181146117425760008415611730578287015190505b61173a85826116bc565b8655506117a2565b601f19841661175086611536565b60005b8281101561177857848901518255600182019150602085019450602081019050611753565b868310156117955784890151611791601f89168261169e565b8355505b6001600288020188555050505b505050505050565b600081519050919050565b600081905092915050565b60006117cb826117aa565b6117d581856117b5565b93506117e581856020860161103c565b80840191505092915050565b60006117fd82846117c0565b915081905092915050565b7f5969656c6450726f6f663a206661696c656420746f207061792061747465737460008201527f6174696f6e206665650000000000000000000000000000000000000000000000602082015250565b600061186460298361102b565b915061186f82611808565b604082019050919050565b6000602082019050818103600083015261189381611857565b9050919050565b82818337600083830152505050565b60006118b5838561102b565b93506118c283858461189a565b6118cb83611066565b840190509392505050565b600060608201905081810360008301526118f18186886118a9565b90506119006020830185610dcb565b61190d6040830184610dcb565b95945050505050565b7f5969656c6450726f6f663a2063616c6c6572206973206e6f742074686520616460008201527f6d696e0000000000000000000000000000000000000000000000000000000000602082015250565b600061197260238361102b565b915061197d82611916565b604082019050919050565b600060208201905081810360008301526119a181611965565b905091905056fea2646970667358221220b6d0d9ccda99c28ac1cc45b4ede105453c09e57ba4af4b0d3c2c284e73b78a8964736f6c63430008140033",
  "linkReferences": {},
  "deployedLinkReferences": {}
}